:020000040800F2
:10000000D8040020050100088B1800083B140008E4
:10001000891800083F040008E319000800000000E8
:100020000000000000000000000000008F18000821
:1000300041040008000000008D1800089118000815
:100040001F0100081F0100081F0100081F01000810
:100050001F0100081F0100081F0100081F01000800
:100060001F0100081F0100081F0100081F010008F0
:100070001F0100081F0100081F0100081F010008E0
:100080001F0100081F0100081F0100081F010008D0
:100090001F0100081F0100081F0100081F010008C0
:1000A0001F0100081F0100081F0100081F010008B0
:1000B0001F010008E91800081F0100081F010008BF
:1000C0001F0100081F0100081F0100081F01000890
:1000D0001F0100081F0100081F0100081F01000880
:1000E0001F0100081F0100081F010008DFF810D0E1
:1000F00000F084F900480047251A0008AFF300809B
:10010000D80400200648804706480047FEE7FEE77F
:10011000FEE7FEE7FEE7FEE7FEE7FEE7FEE7FEE7B7
:10012000E5180008ED000008202A04DB203A21FA37
:1001300002F00021704721FA02F3D040C2F1200200
:100140009140084319467047D2B201E000F8012BF4
:10015000491EFBD270470022F6E710B513460A4647
:1001600004461946FFF7F0FF204610BD2DE9F04D7B
:1001700081EA030404F0004B21F0004514464FF0DF
:10018000000A23F0004150EA050220D054EA01029F
:100190001DD0C5F30A570246C5F31303C1F313007C
:1001A000C1F30A5640F4801543F48013A7EB060808
:1001B000101BD64608F2FD3873EB050002D308F198
:1001C000010801E092185B41B8F1000F03DA00204A
:1001D0000146BDE8F08D00204FF4801106468446AC
:1001E0000EE0171B73EB050705D3121B63EB05032A
:1001F00006434CEA010C49084FEA300092185B4173
:1002000050EA0107EDD152EA030012D082EA04005D
:1002100083EA0501084305D0101BAB4106D2012239
:10022000002306E000224FF0004302E06FF00102DD
:1002300053101AEB06004CEB085110EB0A0041EB8F
:100240000B01BDE8F04D00F07BB870B521F0004324
:1002500003430CD0C1F30A550024D5EB040564EB2D
:100260000403D617AD1AB34102DB0020014670BD6E
:10027000201841EB025170BD0EB5C10F80EAE0704D
:100280000844CA07002140F233438DE80E000A46B5
:100290000B4600F064F803B000BD01F0004330B439
:1002A00021F0004150EA010206D00A0DA2F5607269
:1002B000C1F31301002A02DC30BC00207047440F58
:1002C00044EAC104C100E01830BC00EBC250AFF3F7
:1002D00000800029A8BF7047401C490008BF20F0DB
:1002E0000100704710B4B0FA80FC00FA0CF050EA3C
:1002F000010404BF10BC704749B1CCF1200421FABD
:1003000004F411FA0CF118BF012121430843A3EBB7
:100310000C01CB1D4FEA00614FEA102042BF0020C4
:1003200010BC704700EBC35010440029A4BF10BCA0
:100330007047401C490008BF20F0010010BC704706
:1003400010B5141E73F1000408DA401C41F10001DD
:1003500092185B411A4301D120F0010010BD2DE934
:10036000F04D92469B4611B1B1FA81F202E0B0FA2B
:1003700080F22032904600F053F804460F4640EADF
:100380000A0041EA0B0153465A46084313D011466E
:1003900053EA010019D0C8F140025046FFF7C4FEED
:1003A00005460E4650465946424600F039F8084385
:1003B00005D0012004E020463946BDE8F08D00203C
:1003C000054346EAE0762C4337430A986305E40A7E
:1003D000A0EB08000022FD0A44EA47540A3002D587
:1003E00000200146E9E7010510196941DDE90845EA
:1003F00000196941BDE8F04DA2E70000064C074D29
:1004000006E0E06840F0010394E8070098471034E4
:10041000AC42F6D3FFF76EFEB01A0008D01A0008FF
:10042000202A04DB203A00FA02F1002070479140B4
:10043000C2F1200320FA03F3194390407047FEE70E
:10044000704700002DE9F84FDFF8B891002409F15A
:10045000040A0AF1040B23460F270BF1040EC9E02E
:100460000125A5402A40AA427DD1674ED1F804C09B
:10047000ACEB0608B44532D014DCBCF1030F3AD023
:1004800009DCBCF1000F2AD0BCF1010F1CD0BCF17B
:10049000020F31D11DE0BCF1110F17D0BCF1120FCA
:1004A0002AD119E0B8F5881F19D006DCB8F5803FCD
:1004B00015D0B8F5801F1FD111E0B8F5001F0ED080
:1004C000B8F5041F18D10AE0CB6815E0CB681B1DF6
:1004D00012E0CB6808330FE0CB680C330CE08B687C
:1004E0002BB1012B4FF0080303D0456104E0042336
:1004F00002E0056100E00023FF2A01D8064601E082
:1005000000F104064FEA840501D9A5F12005D6F8CB
:10051000008007FA05FC28EA0C0803FA05F548EA0A
:100520000508C6F800804D68ED0062D5374DAE690C
:1005300046F00106AE61AD6924F0030605F0010541
:100540000095334D06EB050CDCF80850A607360F76
:1005500007FA06F825EA0805DFF8B880404503D118
:100560004FF0000817E044E0DFF8AC80404502D1CE
:100570004FF001080FE0DFF8A480404502D14FF0B2
:10058000020808E0DFF89880404502D14FF00308E8
:1005900001E04FF0040808FA06F848EA0508CCF82C
:1005A00008804D68D9F80060ED034D4601D516432B
:1005B00000E096432E604D68DAF80060AD035546C2
:1005C00001D5164300E096432E604D68DBF80060CD
:1005D000ED025D4601D5164300E096432E604D685E
:1005E000DEF80060AD02754601D5164300E0964383
:1005F0002E60641C0D682A46E5407FF431AFBDE8EB
:10060000F88F0000000401400000111000100240AB
:100610000000014000080140000C014000100140B2
:100620000014014001488068704700002800002045
:1006300070B5040025D094F83D00002520B984F859
:100640003C50204600F0E0F9242084F83D0020686A
:10065000016821F0010101602068016841F4004156
:1006600001602068016821F40041016000F02AFB6C
:100670004D4A6168914201D84C4900E04C4988429A
:1006800001D2012070BD4B492368B0FBF1F15E68D7
:1006900026F03F060E435E606368934206D94FF42E
:1006A000967359434FF47A73B1FBF3F12368491CF5
:1006B0001E6A26F03F06314319626168914210D8E4
:1006C0004900401EB0FBF1F2521CC2F30B02042A97
:1006D00001D2042022E0B0FBF1F0401CC0F30B007B
:1006E0001CE0A268F2B301EBC10303EB0116431E49
:1006F000B3FBF6F35B1C43F480431B0549D092B374
:1007000001EBC10202EB0111401EB0FBF1F0401CF5
:10071000C0F30B0040F4804040F400402168CA69F7
:100720004CF6FF739A431043C861D4E907100143A4
:100730002068026822F0C00211430160D4E903017D
:1007400001432068826848F2FF339A431143816075
:10075000D4E9050108432168CA6822F0FF0210436A
:10076000C86001E00EE016E02068016841F0010178
:1007700001602564202084F83D00256384F83E5004
:10078000002070BD01EB4106431EB3FBF6F35B1C7A
:10079000B3E70120C2E701EB4101401EB0FBF1F0DD
:1007A000401CC0F30B00B7E7A086010080841E0048
:1007B00000093D0040420F002DE9FF4F83B00025A6
:1007C000DDE910799A4693460446DDF848800095A5
:1007D000FFF728FF064694F83D0020287CD1192316
:1007E000012285492046009600F0BEFE0028F5D182
:1007F00094F83C0001286FD0012084F83C00206868
:100800000168C90703D1016841F001010160206856
:10081000016821F400610160222084F83D0040203D
:1008200084F83E0025646762A4F82A90608D2085D4
:100830007248E062CDE9008653465A462046049944
:1008400000F014FE00287DD1208DDFF8B491202720
:1008500068B1012814D00228206801681ED041F434
:10086000806101602068416980690090B6E020687D
:10087000416981690091016841F400710160ADE056
:100880002068016821F48061016072B620684169C6
:1008900081690091016841F400710AE041F400614E
:1008A000016072B62068416981690091016821F494
:1008B0008061016062B691E0032868D801280CD0FD
:1008C000022843464FF000024946204600960FD0CA
:1008D00000F04AFEB0BB10E08BE0324641462046B5
:1008E00000F0C1FE70BB20680069616A08706CE0AE
:1008F00000F03AFE30BB72B634E02068016821F4A3
:100900008061016072B620680069616A0870606A7F
:10091000401C6062208D401E2085608D401E6085D9
:10092000384846F2A8110068B0FBF1F0C0EBC000F7
:1009300000EB80000090401E009008D020684069C5
:10094000C04300E029E040070CD50098F3E744F8E5
:10095000305F6773A573206940F02000206162B6A4
:1009600025731AE02068016841F400710160206875
:100970000069616A0870606A401C6062218D491ECE
:100980002185618D491E618562B621681BE0324672
:100990004146204600F067FE18B1012007B0BDE8CF
:1009A000F08F20680069616A0870606A401C6062AC
:1009B000218D491E2185618D491E618521684A6905
:1009C000D24352070AD409690170606A401C606210
:1009D000208D401E2085608D401E6085208D002862
:1009E0007FF46AAF84F83D7084F83E5084F83C5040
:1009F000D4E70220D2E70000020010000000FFFF51
:100A0000040001003400002010B586B000210091E0
:100A10000191029103910068104988421BD1104C4A
:100A2000A06940F00800A061A069694600F00800D4
:100A300004904FF440600090122001900320039036
:100A40000848FFF7FFFCE06940F48000E061E069DE
:100A500000F48000049006B010BD00000058004073
:100A600000100240000C01400248816802781144E5
:100A70008160704728000020074810B5016841F0E8
:100A800010010160032000F075F8002000F006F866
:100A900000F024F8002010BD0020024070B50D4D7C
:100AA00004464FF47A712878B1FBF0F00A490968DE
:100AB000B1FBF0F000F0DCFA48B9102C07D20022AC
:100AC0002146501E00F036F800206C6070BD0120F9
:100AD00070BD000028000020340000200C4808B53C
:100AE000816941F001018161816901F00101009199
:100AF000C16941F08051C161C06900F0805000902F
:100B00000448416821F0E06141F00071416008BD96
:100B10000010024000000140002809DB00F01F0225
:100B2000012191404009800000F1E020C0F800114F
:100B300070470000F0B40E4B1B680C46C3F3022351
:100B4000C3F10705042D00D90425191D072901D279
:100B5000002300E0DB1E012606FA05F1491E2140B4
:100B600099409E40761E16403143F0BC00F03ABFDB
:100B70000CED00E0064900F0070208684FF6FF039D
:100B8000184040EA0220034A104308607047000002
:100B90000CED00E00000FA052DE9F0470F460500D6
:100BA00061D0434E306800F00700B84209D2306887
:100BB00020F0070038433060306800F00700B8428A
:100BC00051D128683B4C810712D5400703D5606896
:100BD00040F4E06060602878000703D5606840F466
:100BE000605060606068A96820F0F00008436060B1
:100BF0002878C00728D06868012810D0216802280A
:100C000010D0890700292EDA616821F00301014321
:100C10006160FFF707FD804641F288390DE02168E9
:100C20008903EFE78901EDE7FFF7FCFCA0EB080182
:100C3000494502D90320BDE8F0876068696800F083
:100C40000C00B0EB810FEFD1306800F00700B84224
:100C50000BD9306820F0070038433060306800F06E
:100C60000700B84201D00120E5E72878400705D504
:100C70006068E96820F4E060084360602878000755
:100C800006D56068296920F4605040EAC1006060C0
:100C900000F028F86168084AC1F30311515CC840AC
:100CA0000649086006480068FFF7F8FE0020C2E722
:100CB0000020024000100240981A00083400002072
:100CC0002C0000200448054900684968044AC1F323
:100CD0000221515CC84070473400002000100240DF
:100CE000A81A000812A185B00FC98DE80F0014A042
:100CF000144A006804905168134801F00C03042B57
:100D000010D0082B0ED1C1F38343C9031DF8030093
:100D10000AD5516804AAC1F34041515C0A4A5043C4
:100D2000B0FBF1F005B0704708494843FAE700000E
:100D300002030405060708090A0B0C0D0E0F10101C
:100D4000010200000010024000127A0000093D007C
:100D50002DE9F84F040070D02078C04DC00749D06D
:100D60006868C0F38100012807D06868C0F381007B
:100D7000022809D16868C00306D52868800339D5E0
:100D800060680028E7D035E06068B0F5803F0BD0A0
:100D900010B1B0F5A02F11D0286820F48030286061
:100DA000286820F4802002E0286840F48030286021
:100DB000606890B1FFF736FC06460AE0286840F408
:100DC00080202860F0E700BFFFF72CFC801B642820
:100DD00073D828688003F7D50CE0FFF723FC06469C
:100DE00005E000BFFFF71EFC801B6428F0D82868D0
:100DF0008003F7D420789A4E80074FF001094FF016
:100E0000000839D5686810F00C0F07D06868C0F387
:100E10008100022809D16868C00306D428688007C9
:100E200014D52069012808D110E02069B0B1C6F8B6
:100E30000090FFF7F7FB074605E00AE1FFF7F2FB3A
:100E4000C01B0228C4D828688007F7D528686169C4
:100E500020F0F80040EAC10028600DE0C6F80080EC
:100E6000FFF7E0FB074604E0FFF7DCFBC01B0228AE
:100E700023D828688007F7D4207800072CD5794834
:100E8000A169D9B1C0F80090FFF7CCFB074604E098
:100E9000FFF7C8FBC01B02280FD8686A8007F7D588
:100EA00071484FF4FA510068B0FBF1F0009000BFB8
:100EB0000098411E0091FAD20EE080E0C0F8008058
:100EC000FFF7B0FB074604E0FFF7ACFBC01B0228AE
:100ED00075D8686A8007F7D42078400760D5E8693C
:100EE0000027C00008D4E86940F08050E861E86954
:100EF000012700F0805000905C480168C90513D4B8
:100F00000168834641F480710160FFF78BFB8246E4
:100F100006E000BFFFF786FBA0EB0A0064284ED86E
:100F2000DBF80000C005F5D5E06801280AD008B15B
:100F3000052813D0286A20F001002862286A20F0D2
:100F4000040002E0286A40F001002862E06841F2F3
:100F5000883B98B1FFF766FB82460BE0286A40F0B9
:100F600004002862EEE700BFFFF75CFBA0EB0A017C
:100F700059455AD8286A8007F6D50CE0FFF752FB8E
:100F8000824605E0FFF74EFBA0EB0A0159454CD81D
:100F9000286A8007F6D41FB1E86920F08050E86124
:100FA000E06988B36968C1F38101022944D002284D
:100FB000C6F8608004D0FFF735FB044638E034E023
:100FC000FFF730FB074604E0FFF72CFBC01B0228AD
:100FD0002BD828688001F7D4206AB0F5803F05D16E
:100FE0006868A16820F4003008436860D4E908010B
:100FF0000843696821F4741108436860C6F860907A
:10100000FFF710FB044606E025E000BFFFF70AFBF0
:10101000001B022809D828688001F7D51BE000BF13
:10102000FFF700FB001B022802D90320BDE8F88F60
:1010300028688001F4D40EE00128F7D06868226A9D
:1010400000F48031914204D1616A00F4701088424A
:1010500001D00120EAE70020E8E70000001002408C
:1010600000004242800442423400002000700040F0
:1010700010B5401EB0F1807F01D3012010BD4FF0AC
:10108000E02460610F21601700F0ACFC0020A0613B
:1010900007202061002010BD7047704770B590F8A0
:1010A0003C20012A26D0012480F83C40022280F80E
:1010B0003D2003685A689D6822F070060A68324332
:1010C0005A600D4B02689A4208D0B2F1804F05D0A9
:1010D0000A4B9A4202D00A4B9A4204D1496825F041
:1010E00080031943916080F83D40002180F83C1056
:1010F000084670BD022070BD002C01400004004075
:101100000008004010B5040003D094F83D0010B171
:1011100007E0012010BD002084F83C00204600F0CC
:101120001FF8022084F83D00211D206800F0EEFB2E
:10113000012084F8460084F83E0084F83F0084F8DB
:10114000400084F8410084F8420084F8430084F8A9
:10115000440084F8450084F83D00002010BD0000E4
:1011600008B500680B49884212D10B48C16941F0AB
:101170000201C161C069002200F002000090114626
:101180001D20FFF7D7FCBDE808401D20FFF7C4BCB9
:1011900008BD0000000400400010024090F83D101F
:1011A000012901D001207047022180F83D1001681B
:1011B000CA6842F00102CA6000680B49884208D040
:1011C000B0F1804F05D00949884202D008498842D1
:1011D00004D1816801F00701062903D0016841F0BC
:1011E0000101016000207047002C01400004004014
:1011F0000008004070B5044690F83C00012817D064
:10120000012584F83C50022084F83D002068826863
:1012100022F0770222F47F4282600868502830D0A2
:101220000DDC20284DD005DC98B310283BD148E0D8
:10123000022070BD302844D0402834D139E06028E5
:1012400028D0702806D0B0F5805F2CD0B0F5005FB4
:1012500029D10AE0CB68D1E90121206800F08CFB9C
:101260002068816841F0770109E0CB68D1E901216C
:10127000206800F081FB2068816841F48041816032
:1012800011E0CA684968206800F088FB5021206896
:1012900007E016E0CA684968206800F090FB60210A
:1012A000206800F073FB84F83D50002084F83C0077
:1012B00070BDCA684968206800F070FB4021206852
:1012C000EFE7226801461046EBE7704770B5044629
:1012D000006801694FF00005C943890715D4C1684A
:1012E000C943890711D4E91E0161012020772068D4
:1012F00080698007204602D0FFF7E7FF04E000F096
:1013000098F8204600F096F8257720680169C943CF
:10131000490717D4C168C943490713D46FF00401C2
:101320000161022020772068806910F4407F204608
:1013300002D0FFF7CAFF04E000F07BF8204600F07F
:1013400079F8257720680169C943090716D4C1686F
:10135000C943090712D46FF0080101610420207706
:101360002068C0698007204602D0FFF7AEFF04E086
:1013700000F05FF8204600F05DF8257720680169ED
:10138000C943C90617D4C168C943C90613D46FF04D
:1013900010010161082020772068C06910F4407FA7
:1013A000204602D0FFF791FF04E000F042F820460B
:1013B00000F040F8257720680169C943C90708D1C2
:1013C000C168C943C90704D1891E0161204600F0E4
:1013D00032F820680169C943090609D4C168C943C4
:1013E000090605D46FF0800101612046FFF754FE25
:1013F00020680169C943490609D4C168C94349063F
:1014000005D46FF040010161204600F015F8206816
:101410000169C94389060BD4C168C943890607D449
:101420006FF0200101612046BDE87040FFF735BE36
:1014300070BD7047704770477047FEE701684A69A2
:10144000D24352050FD46FF480624A61002140F804
:10145000301F202242738173026942F0040202614C
:101460000173012070470020704700002DE9F84FFC
:101470000446006889460B9D01689846174641F46A
:10148000806101602068016841F48071016000950D
:101490004FF0011B0022594620460A9B00F064F8D9
:1014A0004FF4007A40B120680068C00501D5C4F847
:1014B00040A00320BDE8F88F216809F0FE00086114
:1014C0002B46284920460A9A00F082F8F0BB206893
:1014D0004169806900902A4620460A9900F0F6F892
:1014E00040B1206C04283AD12068016841F40071B1
:1014F000016034E0FEB2B8F1010F09D02168380A6A
:1015000008612A4620460A9900F0E0F80028E8D150
:10151000206806612A4620460A9900F0D7F800287C
:10152000DFD12068016841F48071016000950022DC
:10153000594620460A9B00F017F80028B3D12168CD
:1015400009F0FF0040F00100086100E007E02B46D1
:10155000044920460A9A00F03BF80028AAD001204E
:10156000A8E70000020001002DE9F0471E46904662
:101570000D460446C1F30747DDF8209008E0701CD3
:1015800006D0FFF74FF8A0EB0900B0420FD876B1B4
:101590002068012F18D0806925EA00000004000CA3
:1015A00014D000214145EAD00020BDE8F08700209A
:1015B00044F8300F20216173A073216941F02001AC
:1015C000216120730120F0E74069E5E70121E9E7A7
:1015D0002DE9F0479A4691460E46044600254FF005
:1015E0002008C1F3074725E020684069C043400553
:1015F00014D42068016841F40071016021686FF41F
:1016000080604861256384F83D8084F83E50206CFA
:1016100040F00400206484F83C501FE0B9F1FF3F23
:1016200008D0FEF7FFFFA0EB0A0149450CD8B9F13D
:10163000000F09D02068012F13D0806926EA00002E
:101640000004000C0BD0CFE744F8305F84F80D8025
:10165000A573206940F02000206125730120BDE8BA
:10166000F0874069EAE72DE9F041002590460E46F3
:101670000446202717E04069C043C0060CD454F844
:10168000301B6FF01000486144F810596777A57758
:10169000206A2062257717E0FEF7C4FFA0EB080060
:1016A000B04208D83EB120684169C9434906E2D436
:1016B0000020BDE8F08144F8305F6773A5732069AE
:1016C00040F02000206125730120F2E770B5164636
:1016D0000D4604460DE02046FFF7B0FE08B101209C
:1016E00070BD681C05D0FEF79DFF801BA84207D87F
:1016F00035B120684069C0430006ECD4002070BDBD
:10170000002044F8300F20216173A073216941F05B
:10171000200121612073E2E7F0B585B04FF47A72C1
:10172000062103A88DE8070001233B22D021184899
:10173000FFF742F8BDF80C00164C40BA00B220800A
:10174000BDF80E1049BA0EB26680BDF8101049BA45
:101750000DB2A580FEF790FD6FF00D073A46FEF73B
:1017600074FDFEF79AFD20613046FEF785FD3A468E
:10177000FEF76BFDFEF791FD60612846FEF77CFDEC
:101780003A46FEF762FDFEF788FDA06105B0F0BDA8
:101790008000002000000020F0B585B04FF47A7280
:1017A000062103A88DE8070001234322D021194810
:1017B000FFF702F8BDF80C00174C40BA00B2E08009
:1017C000BDF80E1049BA0EB22681BDF8101049BA04
:1017D0000DB26581FEF750FD104F00223B46FEF72B
:1017E000C5FCFEF75AFDE0613046FEF745FD0022DC
:1017F0003B46FEF7BBFCFEF750FD20622846FEF795
:101800003BFD00223B46FEF7B1FCFEF746FD606261
:1018100005B0F0BD800000200000002000606040A6
:1018200010B586B0002417480094019402940394E4
:10183000049413490594016045F6BF51C0E90114B1
:1018400040F2E731C0E903148461FFF75BFC08B1A3
:1018500072B6FEE74FF48050009069460948FFF7E2
:10186000C9FC08B172B6FEE7049404A905480594C2
:10187000FFF714FC002801D072B6FEE706B010BDD9
:101880000004004038000020FEE7FEE77047704784
:10189000FFF7EAB810B590B028216846FEF75BFC68
:1018A00014210AA8FEF757FC0220009001200490A2
:1018B00010200024059007946846FFF749FA08B104
:1018C00072B6FEE70F20CDE90A040C940D940021B6
:1018D0000AA80E94FFF760F9002801D072B6FEE75F
:1018E00010B010BD7047000010B5FFF715FFFFF7EF
:1018F00053FF0448C168491CC160BDE8104002485C
:10190000FFF7E4BC0000002038000020F0B50268BA
:10191000164B174C174D4FF08047984205D0B842F0
:1019200003D0A04201D0A84203D122F070064A6839
:101930003243984205D0B84203D0A04201D0A84219
:1019400003D122F44074CA6822434C6922F0800219
:10195000224302608A68C2620A688262984201D1A8
:101960000969016301214161F0BD0000002C0140C3
:10197000000400400008004010B5846842EA0322D9
:1019800024F47F440A432243826010BD826822F01F
:1019900070020A4342F007018160704710B5036A84
:1019A000046A24F001040462846924F0F00444EA27
:1019B000021423F00A020A438461026210BD10B5CA
:1019C000036A23F0100303628369046A23F47043FB
:1019D00043EA023224F0A00343EA0111826101626A
:1019E00010BDFEE70907090E002804DB00F1E02026
:1019F00080F80014704700F00F0000F1E02080F83C
:101A0000141D704702E008C8121F08C1002AFAD14D
:101A100070477047002001E001C1121F002AFBD16E
:101A20007047000008B5FFF727F8FFF733FF1548A8
:101A3000816941F008018161816901F0080100912B
:101A4000816941F00401816180690F4900F004005F
:101A500000900E484FF4804201600D494160002122
:101A60008160C0E9031241618161C1610162FEF7D9
:101A7000DFFD08B172B6FEE7FFF7D2FE0548FFF7BB
:101A80008DFBFEE70010024000580040800000205F
:101A9000A0860100380000200000000000000000C7
:101AA0000102030406070809000000000102030404
:101AB000D01A00080000002038000000041A0008B6
:101AC000081B000838000020A0040000141A0008B9
:101AD0000000000000000000000000000000000006
:101AE00000000000000000000000000000000000F6
:101AF00000000000000000000100000010000000D5
:081B0000000000000024F400C5
:04000005080000ED02
:00000001FF
