:020000040800F2
:10000000D8040020050100085727000897180008A9
:10001000552700083F040008D3280008000000000E
:100020000000000000000000000000005B27000846
:100030004104000800000000592700085D2700085F
:100040001F0100081F0100081F0100081F01000810
:100050001F0100081F0100081F0100081F01000800
:100060001F0100081F0100081F0100081F010008F0
:100070001F0100081F0100081F0100081F010008E0
:100080001F0100081F0100081F0100081F010008D0
:100090001F0100081F0100081F0100081F010008C0
:1000A0001F0100081F0100081F0100081F010008B0
:1000B0001F010008B52700081F0100081F010008E4
:1000C0001F010008991800081F0100081F010008FF
:1000D0001F0100081F0100081F0100081F01000880
:1000E0001F0100081F0100081F010008DFF810D0E1
:1000F00000F084F90048004715290008AFF300809C
:10010000D80400200648804706480047FEE7FEE77F
:10011000FEE7FEE7FEE7FEE7FEE7FEE7FEE7FEE7B7
:10012000B1270008ED000008202A04DB203A21FA5C
:1001300002F00021704721FA02F3D040C2F1200200
:100140009140084319467047D2B201E000F8012BF4
:10015000491EFBD270470022F6E710B513460A4647
:1001600004461946FFF7F0FF204610BD2DE9F04D7B
:1001700081EA030404F0004B21F0004514464FF0DF
:10018000000A23F0004150EA050220D054EA01029F
:100190001DD0C5F30A570246C5F31303C1F313007C
:1001A000C1F30A5640F4801543F48013A7EB060808
:1001B000101BD64608F2FD3873EB050002D308F198
:1001C000010801E092185B41B8F1000F03DA00204A
:1001D0000146BDE8F08D00204FF4801106468446AC
:1001E0000EE0171B73EB050705D3121B63EB05032A
:1001F00006434CEA010C49084FEA300092185B4173
:1002000050EA0107EDD152EA030012D082EA04005D
:1002100083EA0501084305D0101BAB4106D2012239
:10022000002306E000224FF0004302E06FF00102DD
:1002300053101AEB06004CEB085110EB0A0041EB8F
:100240000B01BDE8F04D00F07BB870B521F0004324
:1002500003430CD0C1F30A550024D5EB040564EB2D
:100260000403D617AD1AB34102DB0020014670BD6E
:10027000201841EB025170BD0EB5C10F80EAE0704D
:100280000844CA07002140F233438DE80E000A46B5
:100290000B4600F064F803B000BD01F0004330B439
:1002A00021F0004150EA010206D00A0DA2F5607269
:1002B000C1F31301002A02DC30BC00207047440F58
:1002C00044EAC104C100E01830BC00EBC250AFF3F7
:1002D00000800029A8BF7047401C490008BF20F0DB
:1002E0000100704710B4B0FA80FC00FA0CF050EA3C
:1002F000010404BF10BC704749B1CCF1200421FABD
:1003000004F411FA0CF118BF012121430843A3EBB7
:100310000C01CB1D4FEA00614FEA102042BF0020C4
:1003200010BC704700EBC35010440029A4BF10BCA0
:100330007047401C490008BF20F0010010BC704706
:1003400010B5141E73F1000408DA401C41F10001DD
:1003500092185B411A4301D120F0010010BD2DE934
:10036000F04D92469B4611B1B1FA81F202E0B0FA2B
:1003700080F22032904600F053F804460F4640EADF
:100380000A0041EA0B0153465A46084313D011466E
:1003900053EA010019D0C8F140025046FFF7C4FEED
:1003A00005460E4650465946424600F039F8084385
:1003B00005D0012004E020463946BDE8F08D00203C
:1003C000054346EAE0762C4337430A986305E40A7E
:1003D000A0EB08000022FD0A44EA47540A3002D587
:1003E00000200146E9E7010510196941DDE90845EA
:1003F00000196941BDE8F04DA2E70000064C074D29
:1004000006E0E06840F0010394E8070098471034E4
:10041000AC42F6D3FFF76EFEA0290008C029000801
:10042000202A04DB203A00FA02F1002070479140B4
:10043000C2F1200320FA03F3194390407047FEE70E
:100440007047000010B590F821100024022903D055
:100450000421816301243DE001680A6822F00E0254
:100460000A6001680A6822F001020A601A4A0168FB
:10047000914201D1012121E0174A1432914201D168
:1004800010211BE0144A2832914201D1891515E050
:10049000114A3C32914201D189140FE00E4A503288
:1004A000914202D14FF4803108E00B4A643291420C
:1004B00002D14FF4801101E04FF08071064A083AF2
:1004C0005160012180F82110002180F82010416B3B
:1004D00001B18847204610BD0800024090F8210075
:1004E000704700002DE9F84FDFF8B891002409F1BA
:1004F000040A0AF1040B23460F270BF1040EC9E08E
:100500000125A5402A40AA427DD1674ED1F804C0FA
:10051000ACEB0608B44532D014DCBCF1030F3AD082
:1005200009DCBCF1000F2AD0BCF1010F1CD0BCF1DA
:10053000020F31D11DE0BCF1110F17D0BCF1120F29
:100540002AD119E0B8F5881F19D006DCB8F5803F2C
:1005500015D0B8F5801F1FD111E0B8F5001F0ED0DF
:10056000B8F5041F18D10AE0CB6815E0CB681B1D55
:1005700012E0CB6808330FE0CB680C330CE08B68DB
:100580002BB1012B4FF0080303D0456104E0042395
:1005900002E0056100E00023FF2A01D8064601E0E1
:1005A00000F104064FEA840501D9A5F12005D6F82B
:1005B000008007FA05FC28EA0C0803FA05F548EA6A
:1005C0000508C6F800804D68ED0062D5374DAE696C
:1005D00046F00106AE61AD6924F0030605F00105A1
:1005E0000095334D06EB050CDCF80850A607360FD6
:1005F00007FA06F825EA0805DFF8B880404503D178
:100600004FF0000817E044E0DFF8AC80404502D12D
:100610004FF001080FE0DFF8A480404502D14FF011
:10062000020808E0DFF89880404502D14FF0030847
:1006300001E04FF0040808FA06F848EA0508CCF88B
:1006400008804D68D9F80060ED034D4601D516438A
:1006500000E096432E604D68DAF80060AD03554621
:1006600001D5164300E096432E604D68DBF800602C
:10067000ED025D4601D5164300E096432E604D68BD
:10068000DEF80060AD02754601D5164300E09643E2
:100690002E60641C0D682A46E5407FF431AFBDE84A
:1006A000F88F00000004014000001110001002400B
:1006B0000000014000080140000C01400010014012
:1006C0000014014001488068704700002C000020A1
:1006D000704770472DE9F041026800245168C76AED
:1006E00090F83E5090F83D60102D1CD0402D1AD04F
:1006F000036C002B7ED053694FF02805DB439F0726
:1007000079D4CF43BF0576D4016C01B1946990F8D8
:100710003D3000219D430B466ED0C91E516180F8CB
:100720003C30BDE8F081946953694FF42A0CDB43F7
:100730005FEAC37E4FF02A4604D06745F1D0B74246
:10074000EFD010E0CF43BF050DD4C16A614501D1A0
:10075000012103E0C16AB14201D10821C162BDE8B3
:10076000F04101F0E5BB1E0716D4CE43B60513D405
:10077000416CC9B21161416B11B9826B002AD0D0B2
:10078000896A19B9816B896A0029CAD000684168F1
:1007900041F400614160C4E79E0706D4CE43B6052C
:1007A00003D4BDE8F04101F017BBE443526864078D
:1007B0004FEA02521BD4002AB3DB1A0608D4CA43FC
:1007C000520505D45A0705D5BDE8F04101F0A8BA95
:1007D0005A07A6D4C9438905A3D4102D03D0BDE878
:1007E000F04101F0EBBBBDE8F04101F05FBA002A37
:1007F00097DB02E015E029E015E05A0608D4CA4369
:10080000520505D45A0705D5BDE8F04101F0DAB923
:100810005A0786D4C943890583D4BDE8F04101F065
:1008200068B9946967E7556825F480655560E243C7
:10083000540700D50121120601D5828900E0028B00
:1008400080F83C3092B2FFF744FF6AE7DC0606D43A
:10085000CC43A40503D4BDE8F04101F0D1BC212E66
:1008600027D0292E25D05C0655D4CC43640552D41C
:100870005B0752D590F83D10438D002B8BD0126949
:10088000436A1A70426A521C4262428D521E42856D
:10089000428D002AD9D12A29D7D101684A6822F489
:1008A00080624A602221016380F83D5000F008FB1D
:1008B00037E71C0623D4CC43640520D45B0720D53E
:1008C00090F83D10438D002BBFD0436A1B78136115
:1008D000426A521C4262428D521E4285428D002A5B
:1008E000B3D12929B1D101684A6822F480624A60F3
:1008F0002121016380F83D5000F0E3FA11E75B0726
:10090000A3D4C9438905A0D4418D00299DD0416A53
:10091000097811610AE05B0797D4C943890594D42B
:10092000418D002991D01169426A1170416A491CB8
:100930004162418D491E4185F3E6704770B5040060
:1009400025D094F83D00002520B984F83C5020467D
:1009500000F07EFA242084F83D002068016821F030
:10096000010101602068016841F4004101602068D4
:10097000016821F40041016000F0D2FB4D4A61683A
:10098000914201D84C4900E04C49884201D20120F3
:1009900070BD4B492368B0FBF1F15E6826F03F065D
:1009A0000E435E606368934206D94FF496735943D1
:1009B0004FF47A73B1FBF3F12368491C1E6A26F0E9
:1009C0003F06314319626168914210D84900401EC8
:1009D000B0FBF1F2521CC2F30B02042A01D2042034
:1009E00022E0B0FBF1F0401CC0F30B001CE0A26859
:1009F000F2B301EBC10303EB0116431EB3FBF6F3A5
:100A00005B1C43F480431B0549D092B301EBC10248
:100A100002EB0111401EB0FBF1F0401CC0F30B00D3
:100A200040F4804040F400402168CA694CF6FF73EE
:100A30009A431043C861D4E9071001432068026853
:100A400022F0C00211430160D4E903010143206890
:100A5000826848F2FF339A4311438160D4E905016B
:100A600008432168CA6822F0FF021043C86001E011
:100A70000EE016E02068016841F001010160256484
:100A8000202084F83D00256384F83E50002070BD8E
:100A900001EB4106431EB3FBF6F35B1CB3E70120F9
:100AA000C2E701EB4101401EB0FBF1F0401CC0F376
:100AB0000B00B7E7A086010080841E0000093D00FE
:100AC00040420F0070477047704770477047000002
:100AD0002DE9FF4F83B00025DDE910799A46934652
:100AE0000446DDF848800095FFF7ECFD064694F8D3
:100AF0003D0020287CD119230122854920460096FB
:100B000001F052FC0028F5D194F83C0001286FD088
:100B1000012084F83C0020680168C90703D10168FE
:100B200041F0010101602068016821F40061016069
:100B3000222084F83D00402084F83E00256467624E
:100B4000A4F82A90608D20857248E062CDE9008685
:100B500053465A462046049901F080FA00287DD178
:100B6000208DDFF8B491202768B1012814D0022825
:100B7000206801681ED041F48061016020684169ED
:100B800080690090B6E02068416981690091016840
:100B900041F400710160ADE02068016821F48061DA
:100BA000016072B62068416981690091016841F471
:100BB00000710AE041F40061016072B62068416989
:100BC00081690091016821F48061016062B691E061
:100BD000032868D801280CD0022843464FF00002B1
:100BE0004946204600960FD001F0DEFBB0BB10E076
:100BF0008BE032464146204601F055FC70BB206830
:100C00000069616A08706CE001F0CEFB30BB72B61F
:100C100034E02068016821F48061016072B62068C8
:100C20000069616A0870606A401C6062208D401E25
:100C30002085608D401E6085384846F2A811006806
:100C4000B0FBF1F0C0EBC00000EB80000090401E54
:100C5000009008D020684069C04300E029E04007C8
:100C60000CD50098F3E744F8305F6773A5732069EB
:100C700040F02000206162B625731AE02068016808
:100C800041F40071016020680069616A0870606A5F
:100C9000401C6062218D491E2185618D491E618540
:100CA00062B621681BE032464146204601F0FBFB5C
:100CB00018B1012007B0BDE8F08F20680069616AB3
:100CC0000870606A401C6062218D491E2185618D1B
:100CD000491E618521684A69D24352070AD40969CD
:100CE0000170606A401C6062208D401E2085608D0E
:100CF000401E6085208D00287FF46AAF84F83D7027
:100D000084F83E5084F83C50D4E70220D2E700003B
:100D1000020010000000FFFF040001003800002066
:100D20002DE9FF4F83B09A46DDE9119793460446BB
:100D3000DDF84080FFF7C6FC054694F83D0020280A
:100D40007FD11923012240492046009501F02CFB58
:100D5000002876D194F83C00012872D0012084F854
:100D60003C0020680168C90703D1016841F0010116
:100D700001602068016821F400610160212084F88D
:100D80003D00402084F83E0000262664C4F82480FC
:100D9000A4F82A90608D20852C48E062CDE900758A
:100DA00053465A462046049901F0D6F970B930E00E
:100DB0002A463946204601F0A9FB58B1206C042888
:100DC00004D12068016841F400710160012007B07E
:100DD000BDE8F08F606A216800780861606A401C95
:100DE0006062218D491E89B22185628D521E628505
:100DF00022685369DB435B070BD469B1007810614B
:100E0000606A401C6062208D401E2085608D401EFF
:100E10006085208D0028CBD12A463946204601F036
:100E20009DFA0028CAD154F83D0B016841F40071C5
:100E30000160202004F81E09E67766770020C6E7E7
:100E4000FFE70220C3E70000020010000000FFFFE0
:100E500010B586B0002100910191029103910068C4
:100E60001449884223D1144CA06940F00800A061C5
:100E7000A069694600F0080004904FF440600090BB
:100E800012200190032003900C48FFF72BFBE06930
:100E900040F48000E061E069002200F480000490EA
:100EA0001146212000F074F8212000F063F806B00C
:100EB00010BD00000058004000100240000C01402E
:100EC000704770470248816802781144816070471A
:100ED0002C000020074810B5016841F010010160A6
:100EE000032000F075F8002000F006F800F024F868
:100EF000002010BD0020024070B50D4D04464FF497
:100F00007A712878B1FBF0F00A490968B1FBF0F07A
:100F100000F0DCFA48B9102C07D200222146501EFE
:100F200000F036F800206C6070BD012070BD00003C
:100F30002C000020380000200C4808B5816941F0E1
:100F400001018161816901F001010091C16941F0F4
:100F50008051C161C06900F0805000900448416830
:100F600021F0E06141F00071416008BD00100240D5
:100F700000000140002809DB00F01F020121914020
:100F80004009800000F1E020C0F800117047000027
:100F9000F0B40E4B1B680C46C3F30223C3F10705E4
:100FA000042D00D90425191D072901D2002300E0D2
:100FB000DB1E012606FA05F1491E214099409E409C
:100FC000761E16403143F0BC01F084BC0CED00E00D
:100FD000064900F0070208684FF6FF03184040EA90
:100FE0000220034A10430860704700000CED00E047
:100FF0000000FA052DE9F0470F46050061D0434E89
:10100000306800F00700B84209D2306820F00700CD
:1010100038433060306800F00700B84251D128688A
:101020003B4C810712D5400703D5606840F4E0606F
:1010300060602878000703D5606840F46050606005
:101040006068A96820F0F000084360602878C00755
:1010500028D06868012810D02168022810D089079C
:1010600000292EDA616821F0030101436160FFF776
:1010700029FB804641F288390DE021688903EFE7BA
:101080008901EDE7FFF71EFBA0EB0801494502D9F6
:101090000320BDE8F0876068696800F00C00B0EBE1
:1010A000810FEFD1306800F00700B8420BD93068EB
:1010B00020F0070038433060306800F00700B84285
:1010C00001D00120E5E72878400705D56068E96888
:1010D00020F4E060084360602878000706D5606867
:1010E000296920F4605040EAC100606000F028F8EF
:1010F0006168084AC1F30311515CC84006490860A1
:1011000006480068FFF7F8FE0020C2E70020024012
:10111000001002408829000838000020300000201C
:101120000448054900684968044AC1F30221515C3A
:10113000C84070473800002000100240982900087D
:1011400012A185B00FC98DE80F0014A0144A0068E1
:1011500004905168134801F00C03042B10D0082BA5
:101160000ED1C1F38343C9031DF803000AD55168AA
:1011700004AAC1F34041515C0A4A5043B0FBF1F06C
:1011800005B0704708494843FAE700000203040528
:10119000060708090A0B0C0D0E0F101001020000C3
:1011A0000010024000127A0000093D002DE9F84FBE
:1011B000040070D02078C04DC00749D06868C0F3E3
:1011C0008100012807D06868C0F38100022809D196
:1011D0006868C00306D52868800339D56068002890
:1011E000E7D035E06068B0F5803F0BD010B1B0F5C6
:1011F000A02F11D0286820F480302860286820F4BF
:10120000802002E0286840F480302860606890B157
:10121000FFF758FA06460AE0286840F48020286064
:10122000F0E700BFFFF74EFA801B642873D82868E8
:101230008003F7D50CE0FFF745FA064605E000BF4E
:10124000FFF740FA801B6428F0D828688003F7D4A1
:1012500020789A4E80074FF001094FF0000839D5E9
:10126000686810F00C0F07D06868C0F3810002288E
:1012700009D16868C00306D42868800714D520699E
:10128000012808D110E02069B0B1C6F80090FFF73E
:1012900019FA074605E00AE1FFF714FAC01B022815
:1012A000C4D828688007F7D52868616920F0F8005D
:1012B00040EAC10028600DE0C6F80080FFF702FA9E
:1012C000074604E0FFF7FEF9C01B022823D8286870
:1012D0008007F7D4207800072CD57948A169D9B1C7
:1012E000C0F80090FFF7EEF9074604E0FFF7EAF9CF
:1012F000C01B02280FD8686A8007F7D571484FF4E1
:10130000FA510068B0FBF1F0009000BF0098411E58
:101310000091FAD20EE080E0C0F80080FFF7D2F929
:10132000074604E0FFF7CEF9C01B022875D8686AAB
:101330008007F7D42078400760D5E8690027C0000F
:1013400008D4E86940F08050E861E869012700F0BE
:10135000805000905C480168C90513D40168834639
:1013600041F480710160FFF7ADF9824606E000BFED
:10137000FFF7A8F9A0EB0A0064284ED8DBF80000BC
:10138000C005F5D5E06801280AD008B1052813D0BA
:10139000286A20F001002862286A20F0040002E098
:1013A000286A40F001002862E06841F2883B98B169
:1013B000FFF788F982460BE0286A40F004002862B3
:1013C000EEE700BFFFF77EF9A0EB0A0159455AD8B6
:1013D000286A8007F6D50CE0FFF774F9824605E02D
:1013E000FFF770F9A0EB0A0159454CD8286A80072D
:1013F000F6D41FB1E86920F08050E861E06988B355
:101400006968C1F38101022944D00228C6F86080CE
:1014100004D0FFF757F9044638E034E0FFF752F9FB
:10142000074604E0FFF74EF9C01B02282BD82868B6
:101430008001F7D4206AB0F5803F05D16868A168C3
:1014400020F4003008436860D4E908010843696863
:1014500021F4741108436860C6F86090FFF732F910
:10146000044606E025E000BFFFF72CF9001B022828
:1014700009D828688001F7D51BE000BFFFF722F9E3
:10148000001B022802D90320BDE8F88F28688001DC
:10149000F4D40EE00128F7D06868226A00F48031A5
:1014A000914204D1616A00F47010884201D0012099
:1014B000EAE70020E8E70000001002400000424296
:1014C00080044242380000200070004010B5401EE9
:1014D000B0F1807F01D3012010BD4FF0E0246061A6
:1014E0000F21601701F0F6F90020A06107202061AC
:1014F000002010BD7047704770B590F83C20012A5D
:1015000026D0012480F83C40022280F83D20036868
:101510005A689D6822F070060A6832435A600D4B83
:1015200002689A4208D0B2F1804F05D00A4B9A4225
:1015300002D00A4B9A4204D1496825F0800319432E
:10154000916080F83D40002180F83C10084670BD55
:10155000022070BD002C0140000400400008004043
:1015600010B5040003D094F83D0010B107E001204D
:1015700010BD002084F83C00204600F01FF8022037
:1015800084F83D00211D206801F038F9012084F81D
:10159000460084F83E0084F83F0084F8400084F858
:1015A000410084F8420084F8430084F8440084F841
:1015B000450084F83D00002010BD000008B500681B
:1015C0000B49884212D10B48C16941F00201C16147
:1015D000C069002200F00200009011461D20FFF7B4
:1015E000D7FCBDE808401D20FFF7C4BC08BD0000C3
:1015F000000400400010024090F83D10012901D085
:1016000001207047022180F83D100168CA6842F04D
:101610000102CA6000680B49884208D0B0F1804FCF
:1016200005D00949884202D00849884204D181681E
:1016300001F00701062903D0016841F001010160B2
:1016400000207047002C01400004004000080040CA
:1016500070B5044690F83C00012817D0012584F8A5
:101660003C50022084F83D002068826822F0770216
:1016700022F47F4282600868502830D00DDC202898
:101680004DD005DC98B310283BD148E0022070BD56
:10169000302844D0402834D139E0602828D0702840
:1016A00006D0B0F5805F2CD0B0F5005F29D10AE0FC
:1016B000CB68D1E90121206801F0D6F82068816863
:1016C00041F0770109E0CB68D1E90121206801F000
:1016D000CBF82068816841F48041816011E0CA68DC
:1016E0004968206801F0D2F85021206807E016E030
:1016F000CA684968206801F0DAF86021206801F0C2
:10170000BDF884F83D50002084F83C0070BDCA68E4
:101710004968206801F0BAF840212068EFE72268A4
:1017200001461046EBE7704770B504460068016952
:101730004FF00005C943890715D4C168C94389071B
:1017400011D4E91E0161012020772068806980079B
:10175000204602D0FFF7E7FF04E000F098F82046AB
:1017600000F096F8257720680169C943490717D426
:10177000C168C943490713D46FF004010161022015
:1017800020772068806910F4407F204602D0FFF760
:10179000CAFF04E000F07BF8204600F079F82577D6
:1017A00020680169C943090716D4C168C9430907FC
:1017B00012D46FF008010161042020772068C0690D
:1017C0008007204602D0FFF7AEFF04E000F05FF88C
:1017D000204600F05DF8257720680169C943C906F5
:1017E00017D4C168C943C90613D46FF01001016151
:1017F000082020772068C06910F4407F204602D07E
:10180000FFF791FF04E000F042F8204600F040F8B6
:10181000257720680169C943C90708D1C168C94350
:10182000C90704D1891E0161204600F032F8206802
:101830000169C943090609D4C168C943090605D429
:101840006FF0800101612046FFF754FE20680169B6
:10185000C943490609D4C168C943490605D46FF094
:1018600040010161204600F015F820680169C94374
:1018700089060BD4C168C943890607D46FF02001DB
:1018800001612046BDE87040FFF735BE70BD70476E
:10189000704770477047FEE703480169891C016182
:1018A0000248FEF717BF0000000000203C000020A7
:1018B00038B5406A002190F83D202B4B46F2A81421
:1018C0001B68B3FBF4F3C3EBC30303EB8303009385
:1018D0003BB15B1E009303681B689B0505D5009B0D
:1018E000F6E7036C43F020030364436B03B1996292
:1018F000836B03B1996203681C6824F480641C60E4
:101900004185436B03B15963836B03B1596303682A
:101910001C6824F001041C6090F83D402023602CDA
:101920000BD0282434EA02020FD080F83D3080F832
:101930003E1000BFFFF701F838BD80F83D3080F859
:101940003E100164FEF7C4FE38BD0268136843F020
:10195000010313600268136843F48063136001633A
:1019600080F83D40E6E700003800002070B50446EE
:1019700090F83D0094F83E10102901D0402906D17E
:10198000222804D121680A6822F400620A60282112
:1019900031EA00024FF000054FF0200626D0216802
:1019A0004968090505D4602803D084F83D6084F8AF
:1019B0003E50256320684168090537D5416821F408
:1019C00000614160606B3D4990F82120012A11D0EF
:1019D0004163606BFEF736FD38B32068016821F083
:1019E0000101016084F83D60606B1CE0256384F8B0
:1019F0003D10DFE7A06B4163A06BFEF723FDA0B1B4
:101A000020684169C943490605D40069616A0870C4
:101A1000606A401C60622068016821F00101016079
:101A200084F83D60A06B416B884710E094F83D104E
:101A3000602910D04169C943490605D40069616A2B
:101A40000870606A401C60622046FEF776FF206CDA
:101A5000C1071CD115E084F83D6025644169C94384
:101A6000490605D40069616A0870606A401C6062BA
:101A70002068016821F0010101602046FEF728FE80
:101A8000E5E7810703D4410701D4000704D52068A6
:101A9000416821F4E061416094F83D00216C490700
:101AA0000BD5282809D10648E062256384F83D60FB
:101AB00084F83E502046FFF705F870BDB1180008C5
:101AC0000000FFFF01684A69D24352050FD46FF44A
:101AD00080624A61002140F8301F202242738173E6
:101AE000026942F004020261017301207047002084
:101AF000704710B5C26A438D0168042B06D0438D30
:101B0000032B08D0438D022B1DD012E04A6822F42B
:101B100080624A600CE04B6823F480634B60042AC7
:101B200006D0022A04D001680A6822F480620A60A2
:101B300001680969426A1170416A491C4162418D1C
:101B4000491E418510BD012A30D0102A2ED0042A0A
:101B500030D0022A2ED00A6842F400720A6001686E
:101B60000969426A1170416A491C4162428D521EE4
:101B70004285026812690A70416A491C4162418DBE
:101B8000491E418501684A6822F440724A6020215A
:101B900080F83D1090F83E200021402A80F83E1049
:101BA0000CD012210163FEF78EFF10BD0A6822F4EB
:101BB0008062D3E70A6842F48062CFE70163FEF7F0
:101BC00084FF10BD38B590F83D10222914D1418D05
:101BD000032912D901680969426A1170416A491CD6
:101BE0004162418D491E4185418D032904D1006820
:101BF000416821F48061416038BDC26A022AFBD08D
:101C0000012901D00029F7D1274946F2A813002263
:101C10000968B1FBF3F101EB810100910168202318
:101C2000009C641E009422D00C68A405F8D40C68B3
:101C300024F480640C6001684C6824F4E0644C6017
:101C400001680969446A2170416A491C4162418DF9
:101C5000491E418580F83D3090F83E1080F83E20C6
:101C600040291DD012210163FEF72DFF38BD046C01
:101C700044F0200404644C6824F4E0644C6001687F
:101C80000969446A2170416A491C4162418D491EBB
:101C9000418580F83D3080F83E20FEF74EFE38BD8D
:101CA0000263FEF712FF38BD3800002010B5C16A8C
:101CB00090F83D20212A0BD1428D52B1416A026831
:101CC00009781161416A491C4162418D491E418573
:101CD00010BD00222023082910D020290ED011F594
:101CE000803F0BD001684C6824F4E0644C60112103
:101CF000016380F83E2080F83D300EE001684C68BA
:101D000024F4E0644C6001680C6844F400740C60D6
:101D1000026380F83D3080F83E20FEF7D5FE10BD0E
:101D200010B590F83D1090F83E30C26A048DB4B101
:101D3000212903D0402B11D122290FD1418DE1B3AC
:101D400090F83E10402942D0416A0268097811613A
:101D5000416A491C4162418D491E418510BD2129BE
:101D6000E8D120230021082A13D0202A11D012F50F
:101D7000803F0ED00268546824F4E064546011225D
:101D8000026380F83E1080F83D3000BFFEF79CFEF5
:101D900010BD0268546824F4E0645460026814685A
:101DA00044F400741460016380F83D3090F83E20E4
:101DB00080F83E10402AE9D100E002E0FEF786FEFE
:101DC00010BD0068416821F48061416010BDBDE82C
:101DD000104000F0F3B8000078B590F83E50C26AA9
:101DE000046B90F83D6000230168222E73D1066DCC
:101DF0000EB9402D6FD0056D1DB90569B5F5404F81
:101E00001BD0458D95B3468D484D012E20D0448D75
:101E1000022C4DD00C6844F480640C6001684C685E
:101E2000240579D5AA4273D0012A71D0082A6FD02F
:101E3000102A6DD0202A6BD06EE04A698A69009220
:101E40000A6842F480720A60016D491C016578BD20
:101E5000AA4214D10A6822F480620A6001684A68C2
:101E6000120504D50A6822F4806217E0FFE74A6988
:101E70008A6900920A6842F400720A6050E0082AF7
:101E800010D0202A0ED0122C0AD0042A03D0022A05
:101E900001D0102AE6D10A6842F480620A603BE071
:101EA000012ADFD00A6822F480620A600168DEE756
:101EB000042A11D0022A0FD0102A0DD00C6844F445
:101EC00000640C6001684C698C6900940C6824F40F
:101ED00080640C6008E025E00C6844F480640C60C9
:101EE00001684C698969009101684C68240517D51F
:101EF000AA4207D0012A05D0082A03D0102A01D00F
:101F0000202A0DD14A6842F480524A6008E0FFE777
:101F10004A6842F480524A6001684A6989690091BE
:101F2000036578BD48698869009078BD0000FFFFAF
:101F300090F83E10402910D00169B1F5804F19D0BA
:101F4000016DA9B3016D012910D1416C5FF0F1025F
:101F500001F4407142EAD11106E0016D0029416CA3
:101F600005D0C9B241F0010100680161704701F07C
:101F7000FE01F9E790F83D102129416C09D0C9B262
:101F800041F0010102681161416B29B1896A49B9C7
:101F900002E001F0FE01F5E7816B0029E6D0896AD5
:101FA0000029E3D00068416841F400614160704756
:101FB000FFE7416CF02201F44071CBE710B590F8D7
:101FC0003D10026D22B3026D012A2FD0026D022A4C
:101FD0001DD1222931D0428D0AB1212933D0428D21
:101FE000002A14D1212912D101684A6822F4E06242
:101FF0004A6001680A6842F400720A6000210163C5
:10200000202280F83D2080F83E10FEF75FFD10BDD5
:10201000C16C0129816C02D0C1F3072108E002687C
:10202000C9B21161016D891C016510BD816CC9B215
:1020300002681161016D491CF6E70068016841F40E
:102040008071016010BD416A026809781161416ABE
:10205000491C4162418D491E418510BD2DE9F84F53
:102060000446006889460B9D01689846174641F46E
:10207000806101602068016841F480710160009511
:102080004FF0011B0022594620460A9B00F08CF9B4
:102090004FF4007A40B120680068C00501D5C4F84B
:1020A00040A00320BDE8F88F216809F0FE00086118
:1020B0002B46284920460A9A00F0AAF9F0BB20686E
:1020C0004169806900902A4620460A9900F01EFA6C
:1020D00040B1206C04283AD12068016841F40071B5
:1020E000016034E0FEB2B8F1010F09D02168380A6E
:1020F00008612A4620460A9900F008FA0028E8D12B
:10210000206806612A4620460A9900F0FFF9002857
:10211000DFD12068016841F48071016000950022E0
:10212000594620460A9B00F03FF90028B3D12168A8
:1021300009F0FF0040F00100086100E007E02B46D5
:10214000044920460A9A00F063F90028AAD0012029
:10215000A8E70000020001002DE9F84304460068EA
:102160000D46DDE9089701689846164641F48071EE
:1021700001604B4600224FF001112046009700F00D
:1021800013F948B120680068C00502D54FF400700B
:1021900020640320BDE8F883216805F0FE00086193
:1021A0003B464A461549204600F032F988B9206876
:1021B0004169806900903A464946204600F0A6F9F8
:1021C00048B1206C042804D12068016841F40071F2
:1021D00001600120DEE7F5B2B8F1010F09D02168F6
:1021E000300A08613A464946204600F08FF9002837
:1021F000E7D1206805610020CCE700000200010063
:10220000F8B590F83D6004460068416821F4E0614B
:1022100041602068002541690091016841F0010199
:1022200001602068016821F48061016020684168D4
:10223000090520D5474F222E48D02A2E46D0616B63
:10224000096849686185618D19B1216C41F004010B
:102250002164416821F400614160606BFEF73EF942
:10226000012808D0606B4763606BFEF7EBF810B194
:10227000606B416B8847608D08B320684169C94332
:10228000490708D40069616A0870606A401C60628E
:10229000608D401E608520684169C943490608D4A5
:1022A0000069616A0870606A401C6062608D401E4F
:1022B0006085608D18B1206C40F004002064206CB3
:1022C00000B32046BDE8F840FFF750BBA16B09689A
:1022D00049686185618D19B1216C41F00401216467
:1022E000416821F400614160A06BFEF7F7F8012816
:1022F000C1D0A06B4763A06BFEF7A4F80028BAD04A
:10230000A06BB6E72A2E06D12563282084F83D006D
:102310002046FEF7D5FD94F83D10202028290DD049
:10232000216B222901D0222E07D1256384F83D009C
:1023300084F83E502046FEF7C3FDF8BD0649E16231
:10234000256384F83D0084F83E502046FEF7BAFB32
:10235000F8BD0000B11800080000FFFF70B5164678
:102360000D4604460DE02046FFF7ACFB08B1012006
:1023700070BD681C05D0FEF7A5F9801BA84207D8E0
:1023800035B120684069C0434007ECD4002070BDDF
:10239000002044F8300F20216173A073216941F0BF
:1023A000200121612073E2E72DE9F0471E469046A7
:1023B0000D460446C1F30747DDF8209008E0701C85
:1023C00006D0FEF77FF9A0EB0900B0420FD876B136
:1023D0002068012F18D0806925EA00000004000C55
:1023E00014D000214145EAD00020BDE8F08700204C
:1023F00044F8300F20216173A073216941F020015E
:10240000216120730120F0E74069E5E70121E9E758
:102410002DE9F0479A4691460E46044600254FF0B6
:102420002008C1F3074725E020684069C043400504
:1024300014D42068016841F40071016021686FF4D0
:1024400080604861256384F83D8084F83E50206CAC
:1024500040F00400206484F83C501FE0B9F1FF3FD5
:1024600008D0FEF72FF9A0EB0A0149450CD8B9F1C5
:10247000000F09D02068012F13D0806926EA0000E0
:102480000004000C0BD0CFE744F8305F84F80D80D7
:10249000A573206940F02000206125730120BDE86C
:1024A000F0874069EAE72DE9F041002590460E46A5
:1024B0000446202717E04069C043C0060CD454F8F6
:1024C000301B6FF01000486144F810596777A5770A
:1024D000206A2062257717E0FEF7F4F8A0EB0800E9
:1024E000B04208D83EB120684169C9434906E2D4E8
:1024F0000020BDE8F08144F8305F6773A573206960
:1025000040F02000206125730120F2E770B51646E7
:102510000D4604460DE02046FFF7D4FA08B101202D
:1025200070BD681C05D0FEF7CDF8801BA84207D807
:1025300035B120684069C0430006ECD4002070BD6E
:10254000002044F8300F20216173A073216941F00D
:10255000200121612073E2E7F0B585B0012504A8D0
:10256000CDE900054FF47A742B467522D0210294F0
:102570001B48FEF7ADFA9DF8100068282ED1002701
:1025800003AE8DF80C700096CDE9015401236B2247
:10259000D0211348FEF7C4FB07208DF80C000096ED
:1025A000CDE9015401231922D0210D48FEF7B8FBD3
:1025B0008DF80C700096CDE9015401231C22D02126
:1025C0000748FEF7ADFB8DF80C700096CDE901547D
:1025D00001231B22D0210248FEF7A2FB05B0F0BD6B
:1025E0003C000020F0B585B04FF47A72062103A8B4
:1025F0008DE8070001233B22D0211848FEF768FA36
:10260000BDF80C00164C40BA00B26080BDF80E1048
:1026100049BA0EB2A680BDF8101049BA0DB2E580D5
:10262000FDF72AFE6FF00D073A46FDF70EFEFDF7A7
:1026300034FE60613046FDF71FFE3A46FDF705FEA9
:10264000FDF72BFEA0612846FDF716FE3A46FDF782
:10265000FCFDFDF722FEE06105B0F0BD3C0000206E
:1026600000000020F0B585B04FF47A72062103A86F
:102670008DE8070001234322D0211948FEF728FAEC
:10268000BDF80C00174C40BA00B22081BDF80E1006
:1026900049BA0EB26681BDF8101049BA0DB2A581D3
:1026A000FDF7EAFD104F00223B46FDF75FFDFDF709
:1026B000F4FD20623046FDF7DFFD00223B46FDF7CA
:1026C00055FDFDF7EAFD60622846FDF7D5FD0022C5
:1026D0003B46FDF74BFDFDF7E0FDA06205B0F0BD08
:1026E0003C000020000000200060604010B586B073
:1026F000002417480094019402940394049413490D
:102700000594016045F6BF51C0E9011440F2E7317C
:10271000C0E903148461FEF723FF08B172B6FEE737
:102720004FF48050009069460948FEF791FF08B1C8
:1027300072B6FEE7049404A905480594FEF7DCFE92
:10274000002801D072B6FEE706B010BD00040040BC
:1027500090000020FEE7FEE770477047FEF7B2BB2F
:1027600010B590B028216846FDF7F5FC14210AA8A1
:10277000FDF7F1FC022000900120049010200024BD
:10278000059007946846FEF711FD08B172B6FEE7A2
:102790000F20CDE90A040C940D9400210AA80E9490
:1027A000FEF728FC002801D072B6FEE710B010BD7D
:1027B000704700003EB50E4C206978B9FFF7CCFE9B
:1027C00001214FF47A7220468DE807000B467522EE
:1027D000D0210848FEF77CF964202061FFF702FF52
:1027E000FFF740FFBDE83E400348FEF79DBF0000F5
:1027F000000000203C00002090000020F0B502689E
:10280000164B174C174D4FF08047984205D0B842F1
:1028100003D0A04201D0A84203D122F070064A683A
:102820003243984205D0B84203D0A04201D0A8421A
:1028300003D122F44074CA6822434C6922F080021A
:10284000224302608A68C2620A688262984201D1A9
:102850000969016301214161F0BD0000002C0140C4
:10286000000400400008004010B5846842EA0322DA
:1028700024F47F440A432243826010BD826822F020
:1028800070020A4342F007018160704710B5036A85
:10289000046A24F001040462846924F0F00444EA28
:1028A000021423F00A020A438461026210BD10B5CB
:1028B000036A23F0100303628369046A23F47043FC
:1028C00043EA023224F0A00343EA0111826101626B
:1028D00010BDFEE70907090E002804DB00F1E02027
:1028E00080F80014704700F00F0000F1E02080F83D
:1028F000141D704702E008C8121F08C1002AFAD14F
:1029000070477047002001E001C1121F002AFBD16F
:102910007047000008B5FEF7DDFAFFF721FF164803
:10292000816941F008018161816901F0080100912C
:10293000816941F0040181618069104900F004005F
:1029400000900F484FF4804201600E494160002121
:102950008160C0E9031241618161C1610162FDF7DB
:10296000EDFF08B172B6FEE7FFF7C0FE0448543031
:10297000FEF742FEFEE70000001002400058004053
:102980003C000020A08601000000000000000000C4
:102990000102030406070809000000000102030405
:1029A000C0290008000000203C000000F4280008B6
:1029B000FC2900083C0000209C04000004290008B9
:1029C0000000000000000000000000000000000007
:1029D00000000000000000000000000000000000F7
:1029E00000000000000000000000000001000000E6
:0C29F00010000000000000000024F400B3
:04000005080000ED02
:00000001FF
