:020000040800F2
:1000000000090020050100084731000843220008CC
:1000100045310008BD080008EF320008000000006C
:100020000000000000000000000000004B3100084C
:10003000BF08000800000000493100084D310008E9
:100040001F0100081F0100081F0100081F01000810
:100050001F0100081F0100081F0100081F01000800
:100060001F0100081F0100081F0100081F010008F0
:100070001F0100081F0100081F0100081F010008E0
:100080001F0100081F010008DD0700081F0100080C
:100090001F0100081F0100081F0100081F010008C0
:1000A0001F0100081F0100081F0100081F010008B0
:1000B0001F010008BD3100081F0100081F010008D2
:1000C0001F010008452200081F0100081F01000849
:1000D0001F0100081F0100081F0100081F01000880
:1000E0001F0100081F0100081F010008DFF810D0E1
:1000F00000F040FB004800477D3C0008AFF3008063
:10010000000900200648804706480047FEE7FEE752
:10011000FEE7FEE7FEE7FEE7FEE7FEE7FEE7FEE7B7
:10012000B9310008ED000008202A04DB203A21FA4A
:1001300002F00021704721FA02F3D040C2F1200200
:100140009140084319467047D2B201E000F8012BF4
:10015000491EFBD270470022F6E710B513460A4647
:1001600004461946FFF7F0FF204610BD421E12F864
:10017000013F002BFBD111F8013B02F8013B002BA2
:10018000F9D170472DE9F04D81EA030404F0004BEA
:1001900021F0004514464FF0000A23F0004150EAD8
:1001A000050220D054EA01021DD0C5F30A570246C9
:1001B000C5F31303C1F31300C1F30A5640F48015CD
:1001C00043F48013A7EB0608101BD64608F2FD384F
:1001D00073EB050002D308F1010801E092185B41BE
:1001E000B8F1000F03DA00200146BDE8F08D0020D1
:1001F0004FF48011064684460EE0171B73EB05078B
:1002000005D3121B63EB050306434CEA010C4908B6
:100210004FEA300092185B4150EA0107EDD152EAF3
:10022000030012D082EA040083EA0501084305D0E6
:10023000101BAB4106D20122002306E000224FF042
:10024000004302E06FF0010253101AEB06004CEB82
:10025000085110EB0A0041EB0B01BDE8F04D00F036
:10026000E2B870B521F0004303430CD0C1F30A5546
:100270000024D5EB040564EB0403D617AD1AB34193
:1002800002DB0020014670BD201841EB025170BD19
:100290000EB5C10F80EAE0700844CA07002140F2A1
:1002A00033438DE80E000A460B4600F0CBF803B04E
:1002B00000BD0EB540F2334102910021CDE900119D
:1002C0000A460B4600F0BEF803B000BD00F0004245
:1002D00030F000400AD0C10D01F56071C0F3160086
:1002E00042EA0151C208400711437047002001460D
:1002F000704701F0004330B421F0004150EA0102A0
:1003000006D00A0DA2F56072C1F31301002A02DCC7
:1003100030BC00207047440F44EAC104C100E0181B
:1003200030BC00EBC25000F047B830B50B46014678
:1003300000202022012409E021FA02F59D4205D384
:1003400003FA02F5491B04FA02F52844151EA2F12E
:100350000102F1DC30BD2DE9F05F05460020924638
:100360009B4688460646814640241BE02846414677
:1003700047462246FFF7D8FE53465A46C01A9141D7
:1003800010D311461846224600F006FA2D1A67EBE4
:1003900001084F4622460120002100F0FDF917EB2D
:1003A00000094E41201EA4F10104DFDC484631461D
:1003B0002A464346BDE8F09F0029A8BF7047401C6D
:1003C000490008BF20F00100704710B4B0FA80FC6B
:1003D00000FA0CF050EA010404BF10BC704749B1A8
:1003E000CCF1200421FA04F411FA0CF118BF012118
:1003F00021430843A3EB0C01CB1D4FEA00614FEAF8
:10040000102042BF002010BC704700EBC3501044C6
:100410000029A4BF10BC7047401C490008BF20F051
:10042000010010BC704710B5141E73F1000408DA07
:10043000401C41F1000192185B411A4301D120F0A8
:10044000010010BD2DE9F04D92469B4611B1B1FA65
:1004500081F202E0B0FA80F22032904600F09CF97E
:1004600004460F4640EA0A0041EA0B0153465A4649
:10047000084313D0114653EA010019D0C8F14002D5
:100480005046FFF751FE05460E4650465946424635
:1004900000F082F9084305D0012004E020463946E7
:1004A000BDE8F08D0020054346EAE0762C43374353
:1004B0000A986305E40AA0EB08000022FD0A44EA5A
:1004C00047540A3002D500200146E9E7010510191A
:1004D0006941DDE9084500196941BDE8F04DA2E731
:1004E0002DE9FE4F804681EA0300C00F0C460090C4
:1004F00021F0004123F00045B8EB0200A94105D2EC
:100500004046214690461C460B46024623F00040DA
:10051000104347D0270DC7F30A00C3F30A510290D6
:10052000401A019040286BDAC3F3130040F4801B9B
:100530000098924620B10023D2EB030A63EB0B0B29
:1005400001985946C0F14002504600F025F9064690
:100550000D4650465946019A00F02DF910EB08005F
:100560006141002487EA115284EAE7731A4340D0BC
:10057000009A62B3019A012A4FEA075215DC001B68
:1005800061EB02014FF0004202EA0752CDE900425E
:10059000001C41F5801132462B46FFF753FF03B094
:1005A000BDE8F08F40462146F9E7001B61EB0201F0
:1005B000001C41F5801300185B412018A2F50017BC
:1005C00047EB030140EAD570B6196D4111E06D08A3
:1005D0004FEA360645EAC0754FEA0752001B61EB49
:1005E0000201001C41F5801149084FEA3000001952
:1005F000514132462B4603B0BDE8F04FFFF713BF21
:100600000098012240000023D0EB020263EBE0736C
:10061000009821464FEAE074B8EB000061EB04015A
:10062000E9E783F000435BE781F0004158E72DE9FB
:10063000FE4F81EA030404F0004421F000410094DD
:100640004FF0000B23F0004350EA01045ED052EA61
:1006500003045BD0C3F30A54C1F30A552C44A4F23B
:10066000F3340194A0FB0254C1F3130141F480114F
:10067000C3F3130343F4801301FB024400FB034E56
:10068000840A970A44EA815447EA8357A4FB07681F
:1006900002958D0A05FB07854FEA932C04FB0C5449
:1006A0002705029D4FEA065847EA1637B5EB0805BD
:1006B0006EEB070C870E920E47EA811742EA83120F
:1006C000A7FB0201B6EB0B0164EB00042B0D43EA20
:1006D0000C335E1844EB1C50DA465146E7FB02012E
:1006E000C5F313044FEA0B3343EA14534FEA0432C1
:1006F000019C43EA0603A4F10C040294009CCDE99A
:1007000000B4FFF79FFE03B0BDE8F08F0020014664
:10071000F9E7C1F30A52C1F3130140F2FF3341F488
:1007200080119A4202DA00200146704740F23343BA
:100730009A42A2F2334202DC5242FFF7F5BC00F0CB
:100740002BB8000030B5041E71F1000404DB4FF03B
:100750000044404264EB0101141E73F1000405DB08
:100760001C464FF00043524263EB0403994208BF1A
:10077000904230BD064C074D06E0E06840F00103B2
:1007800094E8070098471034AC42F6D3FFF7B2FC68
:10079000143D0008343D0008202A04DB203A00FA0A
:1007A00002F1002070479140C2F1200320FA03F3C8
:1007B000194390407047202A06DBCB17203A41FAB4
:1007C00002F043EAE07306E041FA02F3D040C2F1DE
:1007D00020029140084319467047000010B50648B2
:1007E00000F0EFF8FFF765FD044AC2E90C01BDE82F
:1007F0001040014800F0E8B8480000200000002048
:1008000070B5044600688168C943C9071CD1816876
:1008100021F00101816000F0B5FB05460FE000BF4B
:1008200000F0B0FB401B022809D9A06A40F010007C
:10083000A062E06A40F00100E062012070BD206823
:100840008068C043C007EBD0002070BDF8B500261B
:100850000446009600688168C943C90728D08168AA
:1008600041F001018160134813490068B0FBF1F0C9
:1008700000E0401E00900028FBD100F083FB0546FD
:1008800011E000BF00F07EFB401B02280BD9A06ADC
:1008900040F01000A062E06A40F00100E06284F8DD
:1008A00024600120F8BD20688068C043C007E9D1FA
:1008B0000020F8BD4400002040420F00FEE77047D2
:1008C00070470000F8B50024009490F824202546D5
:1008D000012A12D0012280F824204A681F23072A07
:1008E0000DD20668776B521E02EB820293409F4343
:1008F0000B6893401F43776319E00220F8BD066838
:100900000D2A0AD2376BD21F02EB820293409F431B
:100910000B6893401F43376309E0F76A0D3A02EB17
:10092000820293409F430B6893401F43F7620A681B
:10093000072306680A2A0AD3F7680A3A02EB42023A
:1009400093409F438B6893401F43F76008E03769EB
:1009500002EB420293409F438B6893401F433761F1
:100960000A68102A01D0112A20D1124B02689A423B
:1009700017D193681B0219D4936843F40003936062
:100980000968102912D10C490C4A0968B1FBF2F12F
:1009900001EB8101490000E0491E00910029FBD1D3
:1009A00004E0816A41F020018162012480F8245032
:1009B0002046F8BD002401404400002040420F00C2
:1009C00070470068C06C704710B504460068416805
:1009D000890626D50168890723D5A16AC90603D4EB
:1009E000A16A41F40071A1628168C1F34241072903
:1009F00010D1217B71B9416821F020014160A06ACA
:100A000020F48070A062A06AC00403D4A06A40F001
:100A10000100A0622046FFF7D3FF21686FF01200AB
:100A200008602068416809062ED5016849072BD562
:100A3000A16AC90603D4A16A41F40051A162816888
:100A4000C1F30231072909D04168490515D48168ED
:100A5000C1F34241072910D1217B71B9416821F0CE
:100A600080014160A06A20F48050A062A06AC005A5
:100A700003D4A06A40F00100A0622046FFF720FFE7
:100A800021686FF00C0008602068416849060DD5A8
:100A90000068C0070AD0A06A40F48030A0622046F7
:100AA00000F094F821686FF00100086010BD0000AC
:100AB0002DE9F0414FF0000704003D467ED0A06ACA
:100AC000002628B9E66284F82460204600F080F809
:100AD0002046FFF795FEA16AC90600D420B1A06A9E
:100AE00040F01000A06269E0A16A21F4885141F051
:100AF0000201A1626268E169237B0A4347EA43017C
:100B00000A43A1684FF48077B94209D0012907D080
:100B10005FF0000194F814C0BCF1010F02D00AE0AC
:100B20003946F7E7F3B1A36A43F02003A362E36A0F
:100B300043F00103E3622368D3F804C02CF4694C4A
:100B40004CEA010CC3F804C021688B68DFF870C060
:100B500003EA0C0313438B60A168B9420BD001294F
:100B600009D00CE0DFF85CC0A3690CEB43330B4306
:100B700043F40061DFE7218A0D05A5F580152168A2
:100B8000CB6A23F470032B43CB62216889680E4B38
:100B90001940914208D1E662A16A21F0020141F0B8
:100BA0000101A162BDE8F081A06A20F0020040F0DE
:100BB0001000A062E06A40F00100E0620120F1E76D
:100BC000FDF7E1FF00E0FFFFFE0E1FFF7047000092
:100BD00000B585B000210091019102910391006858
:100BE0001249884220D11248816941F40071816123
:100BF000816901F400710491816941F0040181610E
:100C00008069694600F004000490022000900320EF
:100C10000190084800F0C6F800221146122000F0AA
:100C200017FE122000F006FE05B000BD00240140B2
:100C3000001002400008014070B5044690F82400FE
:100C400001280DD0012084F824002046FFF7FEFD86
:100C500002004FF0000005D084F82400104670BD5B
:100C6000022070BDA16A40F60163994341F480718E
:100C7000A162224D23682249AB4218D10E6816F4B6
:100C8000702F14D0A66A46F48016A6620E68760508
:100C900005D5A66A26F4005646F48056A662A66AD2
:100CA000F6040AD5E66A26F00606E66206E0A66ABB
:100CB00026F48016A6625E68E9E7E06284F8240004
:100CC0006FF0020018602068436843F0200343601F
:100CD00020688368C3F34243072B05D1A84208D19B
:100CE000096811F4702F04D0816841F4801181608B
:100CF000B4E7816841F4A001F9E700000028014051
:100D00000424014010B590F821100024022903D0DA
:100D10000421816301243DE001680A6822F00E028B
:100D20000A6001680A6822F001020A601A4A016832
:100D3000914201D1012121E0174A1432914201D19F
:100D400010211BE0144A2832914201D1891515E087
:100D5000114A3C32914201D189140FE00E4A5032BF
:100D6000914202D14FF4803108E00B4A6432914243
:100D700002D14FF4801101E04FF08071064A083A29
:100D80005160012180F82110002180F82010416B72
:100D900001B18847204610BD0800024090F82100AC
:100DA000704700002DE9F84FDFF8B891002409F1F1
:100DB000040A0AF1040B23460F270BF1040EC9E0C5
:100DC0000125A5402A40AA427DD1674ED1F804C032
:100DD000ACEB0608B44532D014DCBCF1030F3AD0BA
:100DE00009DCBCF1000F2AD0BCF1010F1CD0BCF112
:100DF000020F31D11DE0BCF1110F17D0BCF1120F61
:100E00002AD119E0B8F5881F19D006DCB8F5803F63
:100E100015D0B8F5801F1FD111E0B8F5001F0ED016
:100E2000B8F5041F18D10AE0CB6815E0CB681B1D8C
:100E300012E0CB6808330FE0CB680C330CE08B6812
:100E40002BB1012B4FF0080303D0456104E00423CC
:100E500002E0056100E00023FF2A01D8064601E018
:100E600000F104064FEA840501D9A5F12005D6F862
:100E7000008007FA05FC28EA0C0803FA05F548EAA1
:100E80000508C6F800804D68ED0062D5374DAE69A3
:100E900046F00106AE61AD6924F0030605F00105D8
:100EA0000095334D06EB050CDCF80850A607360F0D
:100EB00007FA06F825EA0805DFF8B880404503D1AF
:100EC0004FF0000817E044E0DFF8AC80404502D165
:100ED0004FF001080FE0DFF8A480404502D14FF049
:100EE000020808E0DFF89880404502D14FF003087F
:100EF00001E04FF0040808FA06F848EA0508CCF8C3
:100F000008804D68D9F80060ED034D4601D51643C1
:100F100000E096432E604D68DAF80060AD03554658
:100F200001D5164300E096432E604D68DBF8006063
:100F3000ED025D4601D5164300E096432E604D68F4
:100F4000DEF80060AD02754601D5164300E0964319
:100F50002E60641C0D682A46E5407FF431AFBDE881
:100F6000F88F000000040140000011100010024042
:100F70000000014000080140000C01400010014049
:100F800000140140014880687047000038000020CC
:100F9000704770472DE9F041026800245168C76A24
:100FA00090F83E5090F83D60102D1CD0402D1AD086
:100FB000036C002B7ED053694FF02805DB439F075D
:100FC00079D4CF43BF0576D4016C01B1946990F810
:100FD0003D3000219D430B466ED0C91E516180F803
:100FE0003C30BDE8F081946953694FF42A0CDB432F
:100FF0005FEAC37E4FF02A4604D06745F1D0B7427E
:10100000EFD010E0CF43BF050DD4C16A614501D1D7
:10101000012103E0C16AB14201D10821C162BDE8EA
:10102000F04101F055BC1E0716D4CE43B60513D4CB
:10103000416CC9B21161416B11B9826B002AD0D0E9
:10104000896A19B9816B896A0029CAD00068416828
:1010500041F400614160C4E79E0706D4CE43B60563
:1010600003D4BDE8F04101F087BBE4435268640754
:101070004FEA02521BD4002AB3DB1A0608D4CA4333
:10108000520505D45A0705D5BDE8F04101F018BB5B
:101090005A07A6D4C9438905A3D4102D03D0BDE8AF
:1010A000F04101F05BBCBDE8F04101F0CFBA002A8D
:1010B00097DB02E015E029E015E05A0608D4CA43A0
:1010C000520505D45A0705D5BDE8F04101F04ABAEA
:1010D0005A0786D4C943890583D4BDE8F04101F09D
:1010E000D8B9946967E7556825F480655560E2438F
:1010F000540700D50121120601D5828900E0028B38
:1011000080F83C3092B2FFF744FF6AE7DC0606D471
:10111000CC43A40503D4BDE8F04101F041BD212E2C
:1011200027D0292E25D05C0655D4CC43640552D453
:101130005B0752D590F83D10438D002B8BD0126980
:10114000436A1A70426A521C4262428D521E4285A4
:10115000428D002AD9D12A29D7D101684A6822F4C0
:1011600080624A602221016380F83D5000F008FB54
:1011700037E71C0623D4CC43640520D45B0720D575
:1011800090F83D10438D002BBFD0436A1B7813614C
:10119000426A521C4262428D521E4285428D002A92
:1011A000B3D12929B1D101684A6822F480624A602A
:1011B0002121016380F83D5000F0E3FA11E75B075D
:1011C000A3D4C9438905A0D4418D00299DD0416A8B
:1011D000097811610AE05B0797D4C943890594D463
:1011E000418D002991D01169426A1170416A491CF0
:1011F0004162418D491E4185F3E6704770B5040098
:1012000025D094F83D00002520B984F83C502046B4
:1012100000F07EFA242084F83D002068016821F067
:10122000010101602068016841F40041016020680B
:10123000016821F40041016000F048FC4D4A6168FA
:10124000914201D84C4900E04C49884201D201202A
:1012500070BD4B492368B0FBF1F15E6826F03F0694
:101260000E435E606368934206D94FF49673594308
:101270004FF47A73B1FBF3F12368491C1E6A26F020
:101280003F06314319626168914210D84900401EFF
:10129000B0FBF1F2521CC2F30B02042A01D204206B
:1012A00022E0B0FBF1F0401CC0F30B001CE0A26890
:1012B000F2B301EBC10303EB0116431EB3FBF6F3DC
:1012C0005B1C43F480431B0549D092B301EBC10280
:1012D00002EB0111401EB0FBF1F0401CC0F30B000B
:1012E00040F4804040F400402168CA694CF6FF7326
:1012F0009A431043C861D4E907100143206802688B
:1013000022F0C00211430160D4E9030101432068C7
:10131000826848F2FF339A4311438160D4E90501A2
:1013200008432168CA6822F0FF021043C86001E048
:101330000EE016E02068016841F0010101602564BB
:10134000202084F83D00256384F83E50002070BDC5
:1013500001EB4106431EB3FBF6F35B1CB3E7012030
:10136000C2E701EB4101401EB0FBF1F0401CC0F3AD
:101370000B00B7E7A086010080841E0000093D0035
:1013800040420F0070477047704770477047000039
:101390002DE9FF4F83B00025DDE910799A46934689
:1013A0000446DDF848800095FFF7ECFD064694F80A
:1013B0003D0020287CD11923012285492046009632
:1013C00001F0C2FC0028F5D194F83C0001286FD050
:1013D000012084F83C0020680168C90703D1016836
:1013E00041F0010101602068016821F400610160A1
:1013F000222084F83D00402084F83E002564676286
:10140000A4F82A90608D20857248E062CDE90086BC
:1014100053465A462046049901F0F0FA00287DD13F
:10142000208DDFF8B491202768B1012814D002285C
:10143000206801681ED041F4806101602068416924
:1014400080690090B6E02068416981690091016877
:1014500041F400710160ADE02068016821F4806111
:10146000016072B62068416981690091016841F4A8
:1014700000710AE041F40061016072B620684169C0
:1014800081690091016821F48061016062B691E098
:10149000032868D801280CD0022843464FF00002E8
:1014A0004946204600960FD001F04EFCB0BB10E03C
:1014B0008BE032464146204601F0C5FC70BB2068F7
:1014C0000069616A08706CE001F03EFC30BB72B6E6
:1014D00034E02068016821F48061016072B6206800
:1014E0000069616A0870606A401C6062208D401E5D
:1014F0002085608D401E6085384846F2A81100683E
:10150000B0FBF1F0C0EBC00000EB80000090401E8B
:10151000009008D020684069C04300E029E04007FF
:101520000CD50098F3E744F8305F6773A573206922
:1015300040F02000206162B625731AE0206801683F
:1015400041F40071016020680069616A0870606A96
:10155000401C6062218D491E2185618D491E618577
:1015600062B621681BE032464146204601F06BFC22
:1015700018B1012007B0BDE8F08F20680069616AEA
:101580000870606A401C6062218D491E2185618D52
:10159000491E618521684A69D24352070AD4096904
:1015A0000170606A401C6062208D401E2085608D45
:1015B000401E6085208D00287FF46AAF84F83D705E
:1015C00084F83E5084F83C50D4E70220D2E7000073
:1015D000020010000000FFFF040001004400002092
:1015E0002DE9FF4F83B09A46DDE9119793460446F3
:1015F000DDF84080FFF7C6FC054694F83D00202842
:101600007FD11923012240492046009501F09CFB1F
:10161000002876D194F83C00012872D0012084F88B
:101620003C0020680168C90703D1016841F001014D
:1016300001602068016821F400610160212084F8C4
:101640003D00402084F83E0000262664C4F8248033
:10165000A4F82A90608D20852C48E062CDE90075C1
:1016600053465A462046049901F046FA70B930E0D4
:101670002A463946204601F019FC58B1206C04284E
:1016800004D12068016841F400710160012007B0B5
:10169000BDE8F08F606A216800780861606A401CCC
:1016A0006062218D491E89B22185628D521E62853C
:1016B00022685369DB435B070BD469B10078106182
:1016C000606A401C6062208D401E2085608D401E37
:1016D0006085208D0028CBD12A463946204601F06E
:1016E0000DFB0028CAD154F83D0B016841F400718C
:1016F0000160202004F81E09E67766770020C6E71F
:10170000FFE70220C3E70000020010000000FFFF17
:1017100010B586B0002100910191029103910068FB
:101720001449884223D1144CA06940F00800A061FC
:10173000A069694600F0080004904FF440600090F2
:1017400012200190032003900C48FFF72BFBE06967
:1017500040F48000E061E069002200F48000049021
:101760001146212000F074F8212000F063F806B043
:1017700010BD00000058004000100240000C014065
:101780007047704702488168027811448160704751
:1017900038000020074810B5016841F010010160D1
:1017A000032000F075F8002000F006F800F024F89F
:1017B000002010BD0020024070B50D4D04464FF4CE
:1017C0007A712878B1FBF0F00A490968B1FBF0F0B2
:1017D00000F052FB48B9102C07D200222146501EBF
:1017E00000F036F800206C6070BD012070BD000074
:1017F00038000020440000200C4808B5816941F001
:1018000001018161816901F001010091C16941F02B
:101810008051C161C06900F0805000900448416867
:1018200021F0E06141F00071416008BD001002400C
:1018300000000140002809DB00F01F020121914057
:101840004009800000F1E020C0F80011704700005E
:10185000F0B40E4B1B680C46C3F30223C3F107051B
:10186000042D00D90425191D072901D2002300E009
:10187000DB1E012606FA05F1491E214099409E40D3
:10188000761E16403143F0BC01F04CBD0CED00E07B
:10189000064900F0070208684FF6FF03184040EAC7
:1018A0000220034A10430860704700000CED00E07E
:1018B0000000FA052DE9F84305460078354CC007CD
:1018C00054D0E0690026C00008D4E06940F08050A0
:1018D000E061E069012600F0805000902E48016828
:1018E000C90512D40168804641F480710160FFF798
:1018F00049FB074605E000BFFFF744FBC01B642817
:1019000023D8D8F80000C005F6D5206A10F440703E
:1019100021D0A98801F4407181421CD0206A1F495E
:10192000012220F440700A6000220A602062C00791
:1019300011D0FFF727FB074641F2883808E000BFC7
:10194000FFF720FBC11B414502D90320BDE8F88306
:10195000206A8007F4D5206A696820F44070084343
:1019600020621EB1E06920F08050E0612878800795
:1019700005D56068A96820F4404008436060287875
:10198000C00605D56068E96820F4800008436060FF
:101990000020DBE70010024000700040400442429B
:1019A0002DE9F0470F46050061D0434E306800F046
:1019B0000700B84209D2306820F007003843306091
:1019C000306800F00700B84251D128683B4C8107CD
:1019D00012D5400703D5606840F4E0606060287865
:1019E000000703D5606840F4605060606068A968D3
:1019F00020F0F000084360602878C00728D06868AD
:101A0000012810D02168022810D0890700292EDA79
:101A1000616821F0030101436160FFF7B3FA80467A
:101A200041F288390DE021688903EFE78901EDE78C
:101A3000FFF7A8FAA0EB0801494502D90320BDE849
:101A4000F0876068696800F00C00B0EB810FEFD19F
:101A5000306800F00700B8420BD9306820F007006A
:101A600038433060306800F00700B84201D00120F0
:101A7000E5E72878400705D56068E96820F4E0606C
:101A8000084360602878000706D56068296920F45B
:101A9000605040EAC100606000F028F86168084AC0
:101AA000C1F30311515CC84006490860064800684C
:101AB000FFF782FE0020C2E7002002400010024033
:101AC000FC3C0008440000203C000020044805497C
:101AD00000684968044AC1F30221515CC84070475C
:101AE00044000020001002400C3D000812A185B007
:101AF0000FC98DE80F0014A0144A006804905168C3
:101B0000134801F00C03042B10D0082B0ED1C1F3A5
:101B10008343C9031DF803000AD5516804AAC1F321
:101B20004041515C0A4A5043B0FBF1F005B07047A8
:101B300008494843FAE700000203040506070809BC
:101B40000A0B0C0D0E0F10100102000000100240D5
:101B500000127A0000093D002DE9F84F040070D012
:101B60002078C04DC00749D06868C0F381000128C3
:101B700007D06868C0F38100022809D16868C003F3
:101B800006D52868800339D560680028E7D035E09D
:101B90006068B0F5803F0BD010B1B0F5A02F11D028
:101BA000286820F480302860286820F4802002E033
:101BB000286840F480302860606890B1FFF7E2F94F
:101BC00006460AE0286840F480202860F0E700BF5D
:101BD000FFF7D8F9801B642873D828688003F7D5ED
:101BE0000CE0FFF7CFF9064605E000BFFFF7CAF9A2
:101BF000801B6428F0D828688003F7D420789A4E98
:101C000080074FF001094FF0000839D5686810F0DF
:101C10000C0F07D06868C0F38100022809D16868FA
:101C2000C00306D42868800714D52069012808D18C
:101C300010E02069B0B1C6F80090FFF7A3F907469D
:101C400005E00AE1FFF79EF9C01B0228C4D8286806
:101C50008007F7D52868616920F0F80040EAC100E4
:101C600028600DE0C6F80080FFF78CF9074604E015
:101C7000FFF788F9C01B022823D828688007F7D40B
:101C8000207800072CD57948A169D9B1C0F8009017
:101C9000FFF778F9074604E0FFF774F9C01B022844
:101CA0000FD8686A8007F7D571484FF4FA51006879
:101CB000B0FBF1F0009000BF0098411E0091FAD2F5
:101CC0000EE080E0C0F80080FFF75CF9074604E012
:101CD000FFF758F9C01B022875D8686A8007F7D447
:101CE0002078400760D5E8690027C00008D4E8697B
:101CF00040F08050E861E869012700F080500090D2
:101D00005C480168C90513D40168834641F48071B9
:101D10000160FFF737F9824606E000BFFFF732F9AE
:101D2000A0EB0A0064284ED8DBF80000C005F5D50A
:101D3000E06801280AD008B1052813D0286A20F0ED
:101D400001002862286A20F0040002E0286A40F0BE
:101D500001002862E06841F2883B98B1FFF712F970
:101D600082460BE0286A40F004002862EEE700BFDC
:101D7000FFF708F9A0EB0A0159455AD8286A8007ED
:101D8000F6D50CE0FFF7FEF8824605E0FFF7FAF81B
:101D9000A0EB0A0159454CD8286A8007F6D41FB138
:101DA000E86920F08050E861E06988B36968C1F3B0
:101DB0008101022944D00228C6F8608004D0FFF7D0
:101DC000E1F8044638E034E0FFF7DCF8074604E0C9
:101DD000FFF7D8F8C01B02282BD828688001F7D459
:101DE000206AB0F5803F05D16868A16820F4003012
:101DF00008436860D4E908010843696821F4741154
:101E000008436860C6F86090FFF7BCF8044606E037
:101E100025E000BFFFF7B6F8001B022809D82868A4
:101E20008001F7D51BE000BFFFF7ACF8001B0228CC
:101E300002D90320BDE8F88F28688001F4D40EE0B1
:101E40000128F7D06868226A00F48031914204D1F9
:101E5000616A00F47010884201D00120EAE7002096
:101E6000E8E70000001002400000424280044242C5
:101E7000440000200070004010B5401EB0F1807F8B
:101E800001D3012010BD4FF0E02460610F216017E5
:101E900001F048FA0020A06107202061002010BD59
:101EA0007047704770B590F83C20012A26D0012475
:101EB00080F83C40022280F83D2003685A689D6803
:101EC00022F070060A6832435A600D4B02689A424B
:101ED00008D0B2F1804F05D00A4B9A4202D00A4B8B
:101EE0009A4204D1496825F080031943916080F833
:101EF0003D40002180F83C10084670BD022070BDB6
:101F0000002C0140000400400008004010B504000F
:101F100003D094F83D0010B107E0012010BD00206F
:101F200084F83C00204600F01FF8022084F83D00B1
:101F3000211D206801F070F9012084F8460084F822
:101F40003E0084F83F0084F8400084F8410084F8A3
:101F5000420084F8430084F8440084F8450084F883
:101F60003D00002010BD000008B500680B49884204
:101F700012D10B48C16941F00201C161C069002260
:101F800000F00200009011461D20FFF761FCBDE843
:101F900008401D20FFF74EBC08BD000000040040B3
:101FA0000010024090F83D10012901D00120704737
:101FB000022180F83D100168CA6842F00102CA603F
:101FC00000680B49884208D0B0F1804F05D009491C
:101FD000884202D00849884204D1816801F0070193
:101FE000062903D0016841F001010160002070471B
:101FF000002C0140000400400008004070B5044679
:1020000090F83C00012817D0012584F83C500220AC
:1020100084F83D002068826822F0770222F47F4233
:1020200082600868502830D00DDC20284DD005DCB7
:1020300098B310283BD148E0022070BD302844D02E
:10204000402834D139E0602828D0702806D0B0F577
:10205000805F2CD0B0F5005F29D10AE0CB68D1E9D0
:102060000121206801F00EF92068816841F07701B4
:1020700009E0CB68D1E90121206801F003F920686B
:10208000816841F48041816011E0CA684968206834
:1020900001F00AF95021206807E016E0CA68496893
:1020A000206801F012F96021206801F0F5F884F849
:1020B0003D50002084F83C0070BDCA684968206823
:1020C00001F0F2F840212068EFE72268014610464F
:1020D000EBE7704770B50446006801694FF00005F2
:1020E000C943890715D4C168C943890711D4E91EBA
:1020F000016101202077206880698007204602D096
:10210000FFF7E7FF04E000F098F8204600F096F8AB
:10211000257720680169C943490717D4C168C943B5
:10212000490713D46FF00401016102202077206871
:10213000806910F4407F204602D0FFF7CAFF04E018
:1021400000F07BF8204600F079F8257720680169D7
:10215000C943090716D4C168C943090712D46FF0EF
:1021600008010161042020772068C06980072046AB
:1021700002D0FFF7AEFF04E000F05FF8204600F069
:102180005DF8257720680169C943C90617D4C1687D
:10219000C943C90613D46FF01001016108202077EC
:1021A0002068C06910F4407F204602D0FFF791FFFD
:1021B00004E000F042F8204600F040F8257720685F
:1021C0000169C943C90708D1C168C943C90704D116
:1021D000891E0161204600F032F820680169C94378
:1021E000090609D4C168C943090605D46FF0800106
:1021F00001612046FFF754FE20680169C943490682
:1022000009D4C168C943490605D46FF04001016192
:10221000204600F015F820680169C94389060BD4EF
:10222000C168C943890607D46FF0200101612046C7
:10223000BDE87040FFF735BE70BD7047704770470E
:102240007047FEE70148FEF7A5BE000078000020B9
:1022500038B5406A002190F83D202B4B46F2A81477
:102260001B68B3FBF4F3C3EBC30303EB83030093DB
:102270003BB15B1E009303681B689B0505D5009B63
:10228000F6E7036C43F020030364436B03B19962E8
:10229000836B03B1996203681C6824F480641C603A
:1022A0004185436B03B15963836B03B15963036881
:1022B0001C6824F001041C6090F83D402023602C31
:1022C0000BD0282434EA02020FD080F83D3080F889
:1022D0003E1000BFFEF791FF38BD80F83D3080F81A
:1022E0003E100164FEF754FE38BD0268136843F0E7
:1022F000010313600268136843F480631360016391
:1023000080F83D40E6E700004400002070B5044638
:1023100090F83D0094F83E10102901D0402906D1D4
:10232000222804D121680A6822F400620A60282168
:1023300031EA00024FF000054FF0200626D0216858
:102340004968090505D4602803D084F83D6084F805
:102350003E50256320684168090537D5416821F45E
:1023600000614160606B3D4990F82120012A11D045
:102370004163606BFEF7C6FC38B32068016821F04A
:102380000101016084F83D60606B1CE0256384F806
:102390003D10DFE7A06B4163A06BFEF7B3FCA0B17B
:1023A00020684169C943490605D40069616A08701B
:1023B000606A401C60622068016821F001010160D0
:1023C00084F83D60A06B416B884710E094F83D10A5
:1023D000602910D04169C943490605D40069616A82
:1023E0000870606A401C60622046FEF706FF206CA1
:1023F000C1071CD115E084F83D6025644169C943DB
:10240000490605D40069616A0870606A401C606210
:102410002068016821F0010101602046FEF7B8FD47
:10242000E5E7810703D4410701D4000704D52068FC
:10243000416821F4E061416094F83D00216C490756
:102440000BD5282809D10648E062256384F83D6051
:1024500084F83E502046FEF795FF70BD51220008DB
:102460000000FFFF01684A69D24352050FD46FF4A0
:1024700080624A61002140F8301F2022427381733C
:10248000026942F0040202610173012070470020DA
:10249000704710B5C26A438D0168042B06D0438D86
:1024A000032B08D0438D022B1DD012E04A6822F482
:1024B00080624A600CE04B6823F480634B60042A1E
:1024C00006D0022A04D001680A6822F480620A60F9
:1024D00001680969426A1170416A491C4162418D73
:1024E000491E418510BD012A30D0102A2ED0042A61
:1024F00030D0022A2ED00A6842F400720A600168C5
:102500000969426A1170416A491C4162428D521E3A
:102510004285026812690A70416A491C4162418D14
:10252000491E418501684A6822F440724A602021B0
:1025300080F83D1090F83E200021402A80F83E109F
:102540000CD012210163FEF71EFF10BD0A6822F4B1
:102550008062D3E70A6842F48062CFE70163FEF746
:1025600014FF10BD38B590F83D10222914D1418DCB
:10257000032912D901680969426A1170416A491C2C
:102580004162418D491E4185418D032904D1006876
:10259000416821F48061416038BDC26A022AFBD0E3
:1025A000012901D00029F7D1274946F2A8130022BA
:1025B0000968B1FBF3F101EB81010091016820236F
:1025C000009C641E009422D00C68A405F8D40C680A
:1025D00024F480640C6001684C6824F4E0644C606E
:1025E00001680969446A2170416A491C4162418D50
:1025F000491E418580F83D3090F83E1080F83E201D
:1026000040291DD012210163FEF7BDFE38BD046CC8
:1026100044F0200404644C6824F4E0644C600168D5
:102620000969446A2170416A491C4162418D491E11
:10263000418580F83D3080F83E20FEF7DEFD38BD54
:102640000263FEF7A2FE38BD4400002010B5C16A47
:1026500090F83D20212A0BD1428D52B1416A026887
:1026600009781161416A491C4162418D491E4185C9
:1026700010BD00222023082910D020290ED011F5EA
:10268000803F0BD001684C6824F4E0644C60112159
:10269000016380F83E2080F83D300EE001684C6810
:1026A00024F4E0644C6001680C6844F400740C602D
:1026B000026380F83D3080F83E20FEF765FE10BDD5
:1026C00010B590F83D1090F83E30C26A048DB4B158
:1026D000212903D0402B11D122290FD1418DE1B303
:1026E00090F83E10402942D0416A02680978116191
:1026F000416A491C4162418D491E418510BD212915
:10270000E8D120230021082A13D0202A11D012F565
:10271000803F0ED00268546824F4E06454601122B3
:10272000026380F83E1080F83D3000BFFEF72CFEBB
:1027300010BD0268546824F4E064546002681468B0
:1027400044F400741460016380F83D3090F83E203A
:1027500080F83E10402AE9D100E002E0FEF716FEC4
:1027600010BD0068416821F48061416010BDBDE882
:10277000104000F0F3B8000078B590F83E50C26AFF
:10278000046B90F83D6000230168222E73D1066D22
:102790000EB9402D6FD0056D1DB90569B5F5404FD7
:1027A0001BD0458D95B3468D484D012E20D0448DCC
:1027B000022C4DD00C6844F480640C6001684C68B5
:1027C000240579D5AA4273D0012A71D0082A6FD086
:1027D000102A6DD0202A6BD06EE04A698A69009277
:1027E0000A6842F480720A60016D491C016578BD77
:1027F000AA4214D10A6822F480620A6001684A6819
:10280000120504D50A6822F4806217E0FFE74A69DE
:102810008A6900920A6842F400720A6050E0082A4D
:1028200010D0202A0ED0122C0AD0042A03D0022A5B
:1028300001D0102AE6D10A6842F480620A603BE0C7
:10284000012ADFD00A6822F480620A600168DEE7AC
:10285000042A11D0022A0FD0102A0DD00C6844F49B
:1028600000640C6001684C698C6900940C6824F465
:1028700080640C6008E025E00C6844F480640C601F
:1028800001684C698969009101684C68240517D575
:10289000AA4207D0012A05D0082A03D0102A01D065
:1028A000202A0DD14A6842F480524A6008E0FFE7CE
:1028B0004A6842F480524A6001684A698969009115
:1028C000036578BD48698869009078BD0000FFFF06
:1028D00090F83E10402910D00169B1F5804F19D011
:1028E000016DA9B3016D012910D1416C5FF0F102B6
:1028F00001F4407142EAD11106E0016D0029416CFA
:1029000005D0C9B241F0010100680161704701F0D2
:10291000FE01F9E790F83D102129416C09D0C9B2B8
:1029200041F0010102681161416B29B1896A49B91D
:1029300002E001F0FE01F5E7816B0029E6D0896A2B
:102940000029E3D00068416841F4006141607047AC
:10295000FFE7416CF02201F44071CBE710B590F82D
:102960003D10026D22B3026D012A2FD0026D022AA2
:102970001DD1222931D0428D0AB1212933D0428D77
:10298000002A14D1212912D101684A6822F4E06298
:102990004A6001680A6842F400720A60002101631B
:1029A000202280F83D2080F83E10FEF7EFFC10BD9D
:1029B000C16C0129816C02D0C1F3072108E00268D3
:1029C000C9B21161016D891C016510BD816CC9B26C
:1029D00002681161016D491CF6E70068016841F465
:1029E0008071016010BD416A026809781161416A15
:1029F000491C4162418D491E418510BD2DE9F84FAA
:102A00000446006889460B9D01689846174641F4C4
:102A1000806101602068016841F480710160009567
:102A20004FF0011B0022594620460A9B00F08CF90A
:102A30004FF4007A40B120680068C00501D5C4F8A1
:102A400040A00320BDE8F88F216809F0FE0008616E
:102A50002B46284920460A9A00F0AAF9F0BB2068C4
:102A60004169806900902A4620460A9900F01EFAC2
:102A700040B1206C04283AD12068016841F400710B
:102A8000016034E0FEB2B8F1010F09D02168380AC4
:102A900008612A4620460A9900F008FA0028E8D181
:102AA000206806612A4620460A9900F0FFF90028AE
:102AB000DFD12068016841F4807101600095002237
:102AC000594620460A9B00F03FF90028B3D12168FF
:102AD00009F0FF0040F00100086100E007E02B462C
:102AE000044920460A9A00F063F90028AAD0012080
:102AF000A8E70000020001002DE9F8430446006841
:102B00000D46DDE9089701689846164641F4807144
:102B100001604B4600224FF001112046009700F063
:102B200013F948B120680068C00502D54FF4007061
:102B300020640320BDE8F883216805F0FE000861E9
:102B40003B464A461549204600F032F988B92068CC
:102B50004169806900903A464946204600F0A6F94E
:102B600048B1206C042804D12068016841F4007148
:102B700001600120DEE7F5B2B8F1010F09D021684C
:102B8000300A08613A464946204600F08FF900288D
:102B9000E7D1206805610020CCE7000002000100B9
:102BA000F8B590F83D6004460068416821F4E061A2
:102BB00041602068002541690091016841F00101F0
:102BC00001602068016821F480610160206841682B
:102BD000090520D5474F222E48D02A2E46D0616BBA
:102BE000096849686185618D19B1216C41F0040162
:102BF0002164416821F400614160606BFEF7CEF80A
:102C0000012808D0606B4763606BFEF77BF810B15A
:102C1000606B416B8847608D08B320684169C94388
:102C2000490708D40069616A0870606A401C6062E4
:102C3000608D401E608520684169C943490608D4FB
:102C40000069616A0870606A401C6062608D401EA5
:102C50006085608D18B1206C40F004002064206C09
:102C600000B32046BDE8F840FFF750BBA16B0968F0
:102C700049686185618D19B1216C41F004012164BD
:102C8000416821F400614160A06BFEF787F80128DC
:102C9000C1D0A06B4763A06BFEF734F80028BAD010
:102CA000A06BB6E72A2E06D12563282084F83D00C4
:102CB0002046FEF765FD94F83D10202028290DD010
:102CC000216B222901D0222E07D1256384F83D00F3
:102CD00084F83E502046FEF753FDF8BD0649E162F8
:102CE000256384F83D0084F83E502046FEF74AFBF9
:102CF000F8BD0000512200080000FFFF70B5164625
:102D00000D4604460DE02046FFF7ACFB08B101205C
:102D100070BD681C05D0FEF735F9801BA84207D8A6
:102D200035B120684069C0434007ECD4002070BD35
:102D3000002044F8300F20216173A073216941F015
:102D4000200121612073E2E72DE9F0471E469046FD
:102D50000D460446C1F30747DDF8209008E0701CDB
:102D600006D0FEF70FF9A0EB0900B0420FD876B1FC
:102D70002068012F18D0806925EA00000004000CAB
:102D800014D000214145EAD00020BDE8F0870020A2
:102D900044F8300F20216173A073216941F02001B4
:102DA000216120730120F0E74069E5E70121E9E7AF
:102DB0002DE9F0479A4691460E46044600254FF00D
:102DC0002008C1F3074725E020684069C04340055B
:102DD00014D42068016841F40071016021686FF427
:102DE00080604861256384F83D8084F83E50206C03
:102DF00040F00400206484F83C501FE0B9F1FF3F2C
:102E000008D0FEF7BFF8A0EB0A0149450CD8B9F18C
:102E1000000F09D02068012F13D0806926EA000036
:102E20000004000C0BD0CFE744F8305F84F80D802D
:102E3000A573206940F02000206125730120BDE8C2
:102E4000F0874069EAE72DE9F041002590460E46FB
:102E50000446202717E04069C043C0060CD454F84C
:102E6000301B6FF01000486144F810596777A57760
:102E7000206A2062257717E0FEF784F8A0EB0800AF
:102E8000B04208D83EB120684169C9434906E2D43E
:102E90000020BDE8F08144F8305F6773A5732069B6
:102EA00040F02000206125730120F2E770B516463E
:102EB0000D4604460DE02046FFF7D4FA08B1012084
:102EC00070BD681C05D0FEF75DF8801BA84207D8CE
:102ED00035B120684069C0430006ECD4002070BDC5
:102EE000002044F8300F20216173A073216941F064
:102EF000200121612073E2E7F0B585B0012504A827
:102F0000CDE900054FF47A742B467522D021029446
:102F10001B48FEF73DFA9DF8100068282ED10027C7
:102F200003AE8DF80C700096CDE9015401236B229D
:102F3000D0211348FEF754FB07208DF80C000096B3
:102F4000CDE9015401231922D0210D48FEF748FB99
:102F50008DF80C700096CDE9015401231C22D0217C
:102F60000748FEF73DFB8DF80C700096CDE9015443
:102F700001231B22D0210248FEF732FB05B0F0BD31
:102F800078000020F0B585B04FF47A72062103A8CE
:102F90008DE8070001233B22D0211848FEF7F8F9FD
:102FA000BDF80C00164C40BA00B26080BDF80E109F
:102FB00049BA0EB2A680BDF8101049BA0DB2E5802C
:102FC000FDF766F96FF00D073A46FDF74AF9FDF790
:102FD00090F960613046FDF75BF93A46FDF741F93B
:102FE000FDF787F9A0612846FDF752F93A46FDF74B
:102FF00038F9FDF77EF9E06105B0F0BD78000020FA
:1030000000000020F0B585B04FF47A72062103A8C5
:103010008DE8070001234322D0211948FEF7B8F9B3
:10302000BDF80C00174C40BA00B22081BDF80E105C
:1030300049BA0EB26681BDF8101049BA0DB2A58129
:10304000FDF726F9104F00223B46FDF79BF8FDF7F0
:1030500050F920623046FDF71BF900223B46FDF790
:1030600091F8FDF746F960622846FDF711F9002254
:103070003B46FDF787F8FDF73CF9A06205B0F0BDCF
:103080007800002000000020006060403EB5002174
:103090001148009101910F4A029102600124816060
:1030A000047301754FF460220461C2614160FDF751
:1030B000FFFC08B172B6FEE707200094CDE901409D
:1030C00069460548FDF7FEFB002801D072B6FEE711
:1030D0003EBD0000002401404800002010B586B02D
:1030E0000024174800940194029403940494134913
:1030F0000594016045F6BF51C0E9011440F2E73183
:10310000C0E903148461FEF701FF08B172B6FEE75F
:103110004FF48050009069460948FEF76FFF08B1F0
:1031200072B6FEE7049404A905480594FEF7BAFEBA
:10313000002801D072B6FEE706B010BD00040040C2
:10314000CC000020FEE7FEE770477047FEF71ABB91
:1031500030B593B028216846FCF7FDFF14210AA87A
:10316000FCF7F9FF002401200F940225049000953C
:103170001020119405901094129407946846FEF75D
:10318000EBFC08B172B6FEE70F20CDE90A040C94FF
:103190000D9400210AA80E94FEF702FC08B172B645
:1031A000FEE70FA80F951194FEF784FB002801D0CD
:1031B00072B6FEE713B030BD704700003EB5124C4A
:1031C000206978B9FFF798FE01214FF47A72204602
:1031D0008DE807000B467522D0210C48FEF7D8F881
:1031E00064202061FFF7CEFEFFF70CFF0848FDF7D3
:1031F000E8FBFDF75EF8C4E90C0100F003FDBDE853
:103200003E400448FEF766BF000000207800002022
:1032100048000020CC000020F0B50268164B174C87
:10322000174D4FF08047984205D0B84203D0A042D6
:1032300001D0A84203D122F070064A683243984276
:1032400005D0B84203D0A04201D0A84203D122F455
:103250004074CA6822434C6922F080022243026013
:103260008A68C2620A688262984201D10969016370
:1032700001214161F0BD0000002C0140000400402C
:103280000008004010B5846842EA032224F47F4419
:103290000A432243826010BD826822F070020A4312
:1032A00042F007018160704710B5036A046A24F098
:1032B00001040462846924F0F00444EA021423F057
:1032C0000A020A438461026210BD10B5036A23F04A
:1032D000100303628369046A23F4704343EA0232F1
:1032E00024F0A00343EA01118261016210BDFEE7F0
:1032F0000FB47CB50C0009AD01D0611E00E00021C7
:10330000CDE90001064B6A462946089800F0ECF822
:10331000002C02D0009A002111707CBC5DF814FBD7
:10332000EF3B00080907090E002804DB00F1E0204C
:1033300080F80014704700F00F0000F1E02080F8E2
:10334000141D704702E008C8121F08C1002AFAD1F4
:1033500070477047002001E001C1121F002AFBD115
:10336000704700002DE9FF5F82B00021DDE90430E5
:10337000020DDDF840B0034318D044F61050A2F21D
:10338000FF3242431514119801281FD0A5EB0B0002
:10339000401C5FEA000A4FF000064E4FDFF83891FC
:1033A000B046504615D5CAF1000413E01198012427
:1033B0004AA3012801D16FEA0B010298119AC0E9D2
:1033C0000031C0E9024206B0BDE8F09FCBF1000039
:1033D000DFE704460021404A491842EB0450CDE99A
:1033E000001012E0E00707D032463B46404649460F
:1033F000FDF71DF98046894632463B461046194680
:10340000FDF715F906460F466410002CEAD1DDE9F8
:103410000401DDE90023BAF1000F06DAFDF707F930
:1034200042464B46FDF703F905E0FCF7ABFE42468A
:103430004B46FCF7A7FE04460E460022284BFDF73C
:1034400081F903D84FF0FF30014607E00022254BF9
:1034500020463146FDF744F8FDF75BF9102409E0FA
:10346000002C0ADB0A220023FCF775FF039B303295
:103470001A55641E50EA0102F2D1641C039AC4F189
:1034800011031444119A012A03D0012208430DD1DB
:103490000AE0084304D000204FF0110B119072E7AE
:1034A000A3EB0B056D1E0DE05B4504DD4FF0000244
:1034B00005F1010504E003DA4FF00002A5F1010572
:1034C000002AECD002981199C0E90231C0E9004508
:1034D00079E70000000014400000F03F30000000D9
:1034E0000000F0430000E03F2DE9FF4F95B09A4601
:1034F000884606460025EEE1252877D10024274698
:10350000F94A0121039400E0044316F8013F203BEF
:1035100001FA03F01042F7D130782A2811D06FF069
:103520002F033078A0F13002092A16D8039A44F00C
:10353000020402EB820203EB42021044761C039069
:10354000EFE758F8042B0392002A03DA504244F4C0
:103550000054039044F00204761C30782E2816D1D3
:1035600016F8010F44F004042A280DD06FF02F0242
:103570003078A0F13003092B09D807EB870302EB61
:103580004303C718761CF3E758F8047B761C3078A1
:103590006C280FD006DC4C2817D068280DD06A287C
:1035A00014D104E0742810D07A280FD10DE044F42F
:1035B00000140AE044F4801401E044F440147278EA
:1035C000824202D104F58014761C761C307866287D
:1035D0000BD013DC582877D009DC002875D045289B
:1035E000F6D04628F4D047281AD193E118E0632892
:1035F00035D0642879D0652812D18BE1702873D03A
:1036000008DC6728F1D069286FD06E280DD06F28AC
:1036100006D1ACE073282CD0752874D0782853D00C
:103620005246179990476D1C54E1C4F3025002288A
:1036300009D003280DD0D8F8001004280DD00D6053
:1036400008F1040846E1D8F80010EA17C1E9005271
:10365000F6E7D8F800100D80F2E70D70F0E718F8E3
:10366000041B8DF8001000208DF80100EB460120AE
:1036700003E058F804BB4FF0FF3061074FF0000142
:1036800002D40DE009F101018946B9420FDA814502
:10369000F8DB1BF809100029F4D108E009F1010159
:1036A00089468142FADB1BF809100029F6D10398FC
:1036B0005346A0EB090721463846179A00F080FAD6
:1036C000284400EB090507E044E008E10DE01BF8A1
:1036D000010B524617999047B9F10109F7D25346A9
:1036E00021463846179AF2E039E00A21C4F3025223
:1036F0004FF0000B0091022A06D058F8040BC117B6
:10370000032A09D00AE023E008F1070020F00702AD
:10371000F2E80201904605E000B2C117042A01D187
:1037200040B2C117002906DA0A460021404261EB87
:1037300002012D2202E0220504D52B228DF804205F
:10374000012203E0E20701D02022F7E7914657E08B
:103750000A2100E010214FF0000B00910BE0102136
:103760004FF0000B44F004040827009103E0082008
:103770004FF0000B0090C4F30252022A05D058F813
:10378000040B0021032A08D008E008F1070020F00C
:103790000702F2E80201904603E080B2042A00D159
:1037A000C0B24FF0000922072AD53278702A07D01C
:1037B000DDF800C08CF0100C5CEA0B0C05D00EE0BC
:1037C00040228DF80420012208E050EA010306D0CF
:1037D00030238DF804308DF8052002229146009B9D
:1037E00083F0080353EA0B030AD150EA010201D126
:1037F000620705D530228DF804204FF001097F1EA5
:103800003278582A04D039A20C920CAA02920BE00A
:103810003BA2F9E75B46009AFCF79DFD0C9B9B5C85
:10382000029A521E0292137050EA0102F2D10298DB
:1038300004A9081A00F1200B600702D524F4803493
:1038400000E001275F4502DDA7EB0B0000E0002050
:1038500000EB0B01009003984944401A0390E003E9
:1038600006D453462146179A039800F0A9F9054457
:10387000002706E001A85246C05D179990476D1CCD
:103880007F1C4F45F6DBE0030CD553462146179AC3
:10389000039800F095F9054404E03020524617994A
:1038A00090476D1C0099481E00900029F5DC08E047
:1038B0000298029952460078491C02911799904744
:1038C0006D1CBBF10001ABF1010BF1DC5BE100F021
:1038D00065F90544761C307800287FF40DAE19B0E8
:1038E0002846BDE8F08F000009280100303132334E
:1038F000343536373839616263646566000000002C
:103900003031323334353637383941424344454615
:1039100000000000600700D4062708F1070020F02F
:103920000700F0E80223804603F0004C5FEA0C0039
:1039300001D097A009E0200501D596A005E0E00799
:1039400001D095A001E0AFF24C001390307823F045
:10395000004365280CD006DC452809D046281DD038
:1039600047287FD13BE0662818D067287AD136E017
:103970000021112F01DB112000E0781CCDE90001AE
:1039800004A90CA8FFF7EEFCDDE90D010C9A4FF03D
:10399000000B07F10109109200914EE04FF000403A
:1039A0000097CDE9011004A90CA8FFF7DBFCDDE9C5
:1039B0000D020C9B0F994FF0000B91461093009253
:1039C00011B9791C00EB0109B7EB090003D4C0F170
:1039D000FF3B07F10109A9EB0700019042E0012F2D
:1039E00000DA01270021112F01DD112000E0384607
:1039F000CDE9000104A90CA8FFF7B4FCDDE90D0135
:103A00000C9A00914FF0000BB946109221070FD489
:103A1000009A4A4503DA914601E0A9F10109B9F19A
:103A2000010F05DD109AA9F10101515C3029F4D094
:103A3000B84202DA10F1040F03DA0121CDE90110D6
:103A400010E0002803DC8344A9EB000102E0411CE4
:103A5000494500DD8946A0EB0B00401C01904FF06A
:103A600000400290200705D40198484502DB4FF042
:103A7000FF30019000208DF84B0002980DF14B07AC
:103A8000B0F1004F25D002200C902B200D90029811
:103A900000280CDA404202902D200D9007E00A2108
:103AA0000298FCF742FC3031029007F8011D0C9996
:103AB000481E0C900029F2DC02980028EFD1791EF4
:103AC0000D980870307800F0200040F0450007F8AD
:103AD000020D11A8C01BC01D02901398007800B100
:103AE000012000EB0901019801EBE071029801440B
:103AF0000398401A401E0390E00306D45346214623
:103B0000179A039800F05CF805441398007818B1F0
:103B10005246179990476D1CE00323D55346214622
:103B2000179A039800F04CF805441BE0BBF1000F16
:103B300007DB0098584504DD1098179910F80B0022
:103B400001E0179930205246904701980BF1010B84
:103B5000401E05F10105019004D12E20524617990F
:103B600090476D1CB9F10001A9F10109DEDC05E007
:103B700017F8010B5246179990476D1C0299481E81
:103B800002900029F4DC53462146179A03989EE6DA
:103B90002D0000002B000000200000002DE9F04166
:103BA000044600251E461746880404D405E039461D
:103BB0002020B0476D1C641EF9D52846BDE8F08171
:103BC0002DE9F041044600251E469046C80301D564
:103BD000302700E02027880404D505E04146384618
:103BE000B0476D1C641EF9D52846BDE8F0814A68CF
:103BF000002A06D00A68531C0B6010704868401EEB
:103C0000486070472DE9F041134CA2B0E069FCF721
:103C10005DFB06460F46A069FCF758FB0546884643
:103C20006069FCF753FB03460A46D4E90C0101AC7A
:103C3000009384E82401CDE9060108A2642108A8C4
:103C4000CDE90467FFF754FB08A90B48FCF78EFA8F
:103C500022B0BDE8F08100000000002023783D255F
:103C6000662C793D25662C7A3D2566232A6164639E
:103C70003D25662A2D0000001401002008B5FDF73F
:103C800089FDFFF765FA1948816941F004018161F6
:103C9000816901F004010091816941F008018161AD
:103CA0008069134900F00800009012484FF48042E8
:103CB00001601149416000218160C0E90312416146
:103CC0008161C1610162FDF799FA08B172B6FEE740
:103CD000FFF704FAFFF7DAF906485430FEF762F905
:103CE00004483038FCF7A8FFFEE70000001002404F
:103CF0000058004078000020A0860100000000006D
:103D0000000000000102030406070809000000008B
:103D100001020304343D00080000002048000000B8
:103D2000443300087C3D000848000020B80800002B
:103D300054330008000000000000000000000000F4
:103D40000000000000000000000000000000000073
:103D50000000000000000000000000000000000063
:103D60000000000000000000000000000100000052
:0C3D700010000000000000000024F4001F
:04000005080000ED02
:00000001FF
